:020000040800F2
:1000000040050020F1010008593A00088134000839
:10001000553A000801030008BB400008000000003A
:10002000000000000000000000000000C93A0008C5
:1000300005030008000000005D3A0008CB3A000804
:100040000B0200080B0200080B0200080B0200085C
:100050000B0200080B0200080B0200080B0200084C
:100060000B0200080B0200080B0200080B0200083C
:100070000B0200080B0200080B0200080B0200082C
:100080000B020008000000005D0200080B020008DF
:100090000B0200080B0200080B0200080B0200080C
:1000A000753B0008853B00080B0200080B020008A6
:1000B0000B0200080B0200080B0200080B020008EC
:1000C0000B0200080B0200080B0200080B020008DC
:1000D0000B0200080B0200080B0200080B020008CC
:1000E0000B0200080B0200080B0200080B020008BC
:1000F0000B0200080B0200080B02000800000000C1
:10010000000000000B020008000000000B020008C5
:100110000B020008000000000B0200080B020008A0
:100120000B0200080B0200080B0200080B0200087B
:100130000B02000800000000000000000B02000895
:100140000B0200080B020008000000000000000085
:10015000000000000000000000000000000000009F
:100160000000000000000000000000000B0200087A
:100170000B0200080000000000000000000000006A
:10018000000000000B02000800000000000000005A
:10019000000000000000000000000000000000005F
:1001A00000000000000000000B0200080B02000825
:1001B0000B0200080B0200080B0200080000000000
:1001C000000000000B02000800000000000000001A
:1001D0000B0200080B020008DFF810D000F02CF82A
:1001E0000048004717410008AFF300804005002099
:1001F0000648804706480047FEE7FEE7FEE7FEE7C1
:10020000FEE7FEE7FEE7FEE7FEE7FEE7593B0008F4
:10021000D9010008D2B201E000F8012B491EFBD23F
:1002200070470022F6E710B513460A460446194601
:10023000FFF7F0FF204610BD064C074D06E0E068D2
:1002400040F0010394E8070098471034AC42F6D31D
:10025000FFF7C6FF544200087442000810B5074873
:1002600000F01EFF064800F01BFF4FF480610548B8
:1002700001F070FB03F0BAFF10BD00001C0000206D
:10028000880000200008004870B50446206803F08C
:1002900031F988BB206880681849084048B1E06D92
:1002A00040F01000E065206E40F001002066012063
:1002B00070BD206803F0E6F801F05CFB054615E030
:1002C000206803F017F910B9206803F0DBF801F09B
:1002D00051FB401B022809D9E06D40F01000E06599
:1002E000206E40F0010020660120E1E720680068F0
:1002F00000F001000028E3D00020D9E73F00008093
:1003000000BFFEE7704772B600BFFEE7704700000F
:100310002DE9FC5F05460C46002001900090002767
:10032000686900B100BFFE49E068884200D000E083
:1003300000BF00BF95F85800012802D10220BDE897
:10034000FC9F012085F8580000BF686910B1206A41
:1003500001281ED1606809284ED1A06A60B194F8C6
:10036000280000F07C002168C1F3846140EA41204C
:10037000E16A40EA010703E02068C0F384604702B5
:100380002868C06CE749084038432968C8646F662C
:1003900032E0A86E90B9216AA96600206866A06A5A
:1003A00050B1206A401E94F8281001F07C010843E7
:1003B000E16A40EA010701E0206A471E207900F067
:1003C0001F010020884087432068C0F384602179A2
:1003D00001F01F0188400743A86E401EA866686EA2
:1003E00038436866A86E38B92868C06CCD490840A3
:1003F000696E08432968C864286803F06CF8D8B9A6
:1004000094F8250070B994F82600400594F824105B
:1004100040EA01502968C96821F44011084329685D
:10042000C86009E02868C06820F4401094F82610DD
:1004300040EA41502968C860286803F06FF8824696
:10044000286803F048F88146BAF1000F7ED1B9F16F
:10045000000FFBD1A06A08B1E06A88B994F82500C2
:10046000012806D12868C06840F000702968C8607B
:1004700017E02868C06820F000702968C86010E0A4
:1004800094F82500012806D1E86D40F02000E865C9
:100490000120019005E02868C06820F000702968FC
:1004A000C86094F8300001280CD1606B40F0020065
:1004B000A16B08432968096921F4FF710843296881
:1004C000086105E02868006920F0020029680861D9
:1004D000A068B0F1004F0AD121680022286803F01B
:1004E0003FF84FF00041286803F076F808E0A26872
:1004F0002168286803F034F80021286803F06CF8BC
:1005000060692968C968C1F3C101490000FA01F8AE
:100510002069042840D028682268216900F1600C15
:100520000CEB8103D3F800C0DFF8FCB10CEA0B0C34
:1005300002F0F84B4BF0004B4BEA080B4CEA0B0C6B
:10054000C3F800C000BF2868A26900E0CCE02169C0
:1005500000F1600C0CEB8103D3F800C02CF0807C20
:100560004CEA020CC3F800C000BF2868227F216952
:10057000012A01D1520600E00022134600F1600C6E
:100580000CEB8102D2F800C02CF0007C4CEA030C8A
:10059000C2F800C000BFA7E00021286802F088FF71
:1005A000C0F3120030B90021286802F081FFC0F3C7
:1005B000846007E00021286802F07AFF90FAA0F03A
:1005C000B0FA80F02168C1F3120119B92168C1F3B2
:1005D000846104E0216891FAA1F1B1FA81F18842C5
:1005E00004D100221146286802F0E5FF01212868A5
:1005F00002F05EFFC0F3120030B90121286802F05A
:1006000057FFC0F3846007E00121286802F050FF23
:1006100090FAA0F0B0FA80F02168C1F3120119B984
:100620002168C1F3846104E0216891FAA1F1B1FA73
:1006300081F1884204D100220121286802F0BBFF29
:100640000221286802F034FFC0F3120030B9022101
:10065000286802F02DFFC0F3846007E002212868BB
:1006600002F026FF90FAA0F0B0FA80F02168C1F302
:10067000120119B92168C1F3846104E0216891FA7B
:10068000A1F1B1FA81F1884204D100220221286847
:1006900002F091FF0321286802F00AFFC0F3120064
:1006A00030B90321286802F003FFC0F3846007E03B
:1006B0000321286802F0FCFE90FAA0F0B0FA80F066
:1006C0002168C1F3120119B92168C1F3846104E002
:1006D000216891FAA1F1B1FA81F1884204D1002296
:1006E0000321286802F067FF286802F008FF00284D
:1006F00073D12868E2682168D0F8B030C1F3120CD9
:1007000023EA0C0302F0180BDFF820C02CFA0BFCD4
:100710000CEA010C43EA0C03C0F8B03000BF07E05C
:1007200000007F400040100400F0FF03FFFF0700BF
:100730007849E068884250D12368C3F312031BB99B
:100740002368C3F3846304E0236893FAA3F3B3FA42
:1007500083F35B1C03F01F03092B3FD82368C3F30B
:1007600012031BB92368C3F3846304E0236893FA7C
:10077000A3F3B3FA83F35B1C03F01F034FF0010CE8
:100780000CFA03FC2368C3F312031BB92368C3F3F9
:10079000846304E0236893FAA3F3B3FA83F35B1C46
:1007A00003F01F034CEA836C2368C3F312031BB9E5
:1007B0002368C3F3846304E0236893FAA3F3B3FAD2
:1007C00083F35B1C03F01F0303EB43034FF0000BA9
:1007D0004BEA03534CEA03033FE043E02368C3F3CF
:1007E00012031BB92368C3F3846304E0236893FAFC
:1007F000A3F3B3FA83F35B1C03F01F034FF0010C68
:100800000CFA03FC2368C3F312031BB92368C3F378
:10081000846304E0236893FAA3F3B3FA83F35B1CC5
:1008200003F01F034CEA836C2368C3F312031BB964
:100830002368C3F3846304E0236893FAA3F3B3FA51
:1008400083F35B1C03F01F030A3B03EB43034FF0EE
:10085000007B4BEA03534CEA03031946A26828685D
:1008600002F07EFE2C492068084048B300BF2B48A8
:10087000806800F0E07600BF29492068884203D0F4
:100880002849206888421CD106F40000C8B92868AD
:10089000B0F1A04F36D146F40001204802F07AFEB4
:1008A000214800682149B0FBF1F000EB40008000D6
:1008B000009002E00098401E009000980028F9D1B6
:1008C00020E01B49206888420CD106F0807048B9AE
:1008D00018492868884215D046F080710F4802F008
:1008E00059FE0FE01449206888420BD106F48000BD
:1008F00040B910492868884204D046F4800107486E
:1009000002F048FE00BF002085F8580000BF0198A3
:1009100015E5000000007F40000008800003005043
:10092000000021C31000C09018000020400D0300FB
:10093000000052C700010050000084CB70470246FF
:10094000092915D0A1F20F136BB1B3F5837F06D03F
:10095000B3F5037F0BD11368D3F88C000CE0136858
:10096000D3F8880008E01368D3F8840004E000BFDF
:100970001368D3F8800000BF00BF704770470000C5
:100980002DE9F041044600BF3D48806800F01F009B
:100990000546206802F09FFD10B10220BDE8F081FD
:1009A0002068C06800F000472068C06C00F4C07088
:1009B00030B92FB9E06D40F02000E0650120EDE78F
:1009C00000BF94F85800012801D10220E6E7012079
:1009D00084F8580000BF2046FFF756FC0646002E5C
:1009E00046D1E06D00F4807020B1206E20F0080048
:1009F000206601E000202066E06D42F2010188439C
:100A000040F48050E0651F492068884202D14FF0D1
:100A1000A04000E020682168884200D01DB9E06D48
:100A200020F48010E06560202168086000BF00208D
:100A300084F8580000BF13492068884202D14FF063
:100A4000A04000E020682168884204D01DB1062D36
:100A500001D0072D07D1206802F033FD68B9206866
:100A600002F03EFD09E0E06D40F48010E06504E036
:100A700000BF002084F8580000BF30468EE7000019
:100A80000003005000010050704770472DE9F0430B
:100A90009BB004460E464FF00008306800B100BF1E
:100AA00000BF94F85800012803D102201BB0BDE814
:100AB000F083012084F8580000BF2068B0F1A04FF7
:100AC00002D13248009001E000200090009850B917
:100AD000E06D40F02000E06500BF002084F8580081
:100AE00000BF0120E2E7009802F018FD07462068E9
:100AF00002F014FDD8BBD7BB254D306800B394F885
:100B00003800716841EA4030A96821F46041084327
:100B1000A8604FF0A04002F0F2FC81461B4802F0B2
:100B2000EEFC49EA0009B9F1000F27D1B16830683D
:100B30000843A96840F61F7291430843A8601DE06E
:100B4000A86820F46040A8604FF0A04002F0D7FCF5
:100B500081460E4802F0D3FC49EA0009B9F1000FC2
:100B60000CD1A86840F61F718843A86006E0FFE733
:100B7000E06D40F02000E0654FF0010800BF00206C
:100B800084F8580000BF404690E700000001005084
:100B9000000300502DE9F84F05460C464FF0000ABF
:100BA00000200090FE49E068884200D000E000BFCD
:100BB00000BF95F85800012802D10220BDE8F88F47
:100BC000012085F8580000BF286802F0A2FC002828
:100BD0007DD12968D4E9002001F1300CC0F3012B4C
:100BE0000CEB8B03D3F800C000F01F0E4FF01F0B6F
:100BF0000BFA0EFB2CEA0B0C00F01F0BC2F3846EF9
:100C00000EFA0BFE4CEA0E0CC3F800C000BF2868B9
:100C100002F07FFC8146286802F058FC8046B9F15A
:100C2000000F64D1B8F1000FFBD1A068B0F1004F04
:100C30000AD121680022286802F07EFC4FF00041B2
:100C4000286802F0C3FC08E0A2682168286802F066
:100C500073FC0021286802F0B9FC60692968C96842
:100C6000C1F3C101490000FA01F7206904283FD00F
:100C700028682268216900F1600C0CEB8103D3F82D
:100C800000C0DFF820B30CEA0B0C02F0F84B4BF07D
:100C9000004B4BEA070B4CEA0B0CC3F800C000BF3B
:100CA0002868A269216900F1600C0CEB8103D3F87C
:100CB00000C02CF0807C4CEA020CC3F800C000BFDE
:100CC0002868227F2169012A02D1520601E0C5E18C
:100CD0000022134600F1600C0CEB8102D2F800C038
:100CE0002CF0007C4CEA030CC2F800C000BFA7E067
:100CF0000021286802F0D3FBC0F3120030B90021B4
:100D0000286802F0CCFBC0F3846007E0002128686B
:100D100002F0C5FB90FAA0F0B0FA80F02168C1F3B0
:100D2000120119B92168C1F3846104E0216891FAC4
:100D3000A1F1B1FA81F1884204D10022114628685C
:100D400002F02EFC0121286802F0A9FBC0F312007A
:100D500030B90121286802F0A2FBC0F3846007E0EB
:100D60000121286802F09BFB90FAA0F0B0FA80F015
:100D70002168C1F3120119B92168C1F3846104E04B
:100D8000216891FAA1F1B1FA81F1884204D10022DF
:100D90000121286802F004FC0221286802F07FFB90
:100DA000C0F3120030B90221286802F078FBC0F3CA
:100DB000846007E00221286802F071FB90FAA0F03D
:100DC000B0FA80F02168C1F3120119B92168C1F3AA
:100DD000846104E0216891FAA1F1B1FA81F18842BD
:100DE00004D100220221286802F0DAFB03212868DE
:100DF00002F055FBC0F3120030B90321286802F05D
:100E00004EFBC0F3846007E00321286802F047FB33
:100E100090FAA0F0B0FA80F02168C1F3120119B97C
:100E20002168C1F3846104E0216891FAA1F1B1FA6B
:100E300081F1884204D100220321286802F0B0FB2E
:100E4000286802F057FB002872D12868E268216800
:100E5000D0F8B030C1F3120C23EA0C0302F0180BE7
:100E6000DFF844C12CFA0BFC0CEA010C43EA0C033A
:100E7000C0F8B03000BF4A49E068884258D12368C2
:100E8000C3F312031BB92368C3F3846304E023682C
:100E900093FAA3F3B3FA83F35B1C03F01F03092B4C
:100EA0003ED82368C3F312031BB92368C3F38463DA
:100EB00004E0236893FAA3F3B3FA83F35B1C03F013
:100EC0001F034FF0010C0CFA03FC2368C3F3120359
:100ED0001BB92368C3F3846304E0236893FAA3F384
:100EE000B3FA83F35B1C03F01F034CEA836C2368A3
:100EF000C3F312031BB92368C3F3846304E02368BC
:100F000093FAA3F3B3FA83F35B1C03F01F0303EB21
:100F100043034FF0000B4BEA03534CEA030347E053
:100F20002368C3F3120323B92368C3F3846305E082
:100F300043E0236893FAA3F3B3FA83F35B1C03F053
:100F40001F034FF0010C0CFA03FC2368C3F31203D8
:100F50001BB92368C3F3846304E0236893FAA3F303
:100F6000B3FA83F35B1C03F01F034CEA836C236822
:100F7000C3F312031BB92368C3F3846304E023683B
:100F800093FAA3F3B3FA83F35B1C03F01F030A3B4A
:100F900003EB43034FF0007B4BEA035306E00000F2
:100FA00000007F4000F0FF03FFFF07004CEA03034F
:100FB0001946A268286802F0BFFA2F492068084045
:100FC00048B300BF2D48806800F0E07600BF2C4990
:100FD0002068884203D02B49206888421CD106F43F
:100FE0000000C8B92868B0F1A04F3DD146F4000117
:100FF000224802F0C9FA244800682449B0FBF1F005
:1010000000EB40008000009002E00098401E00903D
:1010100000980028F9D127E01D49206888420CD1AA
:1010200006F0807048B91B49286888421CD046F0F9
:101030008071124802F0A8FA16E017492068884229
:1010400012D106F4800078B91249286888420BD082
:1010500046F48001094802F097FA05E0E86D40F097
:101060002000E8654FF0010A00BF002085F8580015
:1010700000BF5046A2E500000000088000030050B9
:10108000000021C31000C09018000020400D030094
:10109000000052C700010050000084CB7047704729
:1010A0002DE9F84F0446002000902068056820686C
:1010B0004668C54802F0EEF9074605F0020002282E
:1010C00011D106F0020002280DD1E06D00F01000F1
:1010D00018B9E06D40F40060E0652046FFF716F9AE
:1010E00002202168086005F00400042803D106F0FE
:1010F0000400042807D005F0080008285FD106F096
:10110000080008285BD1E06D00F0100018B9E06D10
:1011100040F40070E065206802F005FA002848D02D
:10112000AA492068884202D14FF0A04000E0206820
:101130002168884204D01FB1052F01D0092F03D1A7
:101140002068D0F80C800AE0A0492068884202D1CB
:101150004FF0A04000E020688346DBF80C8008F4E4
:101160000050B0F5005F24D02068006800F008004F
:1011700008281ED1206802F0CCF990B92068406898
:1011800020F00C0021684860E06D20F48070E0657C
:10119000E06D00F4805060B9E06D40F00100E06562
:1011A00007E0E06D40F01000E065206E40F00100C7
:1011B00020662046FFF772FF0C202168086005F0CA
:1011C0002000202803D106F02000202807D005F0B9
:1011D0004000402872D106F0400040286ED1E06DFA
:1011E00000F0100018B9E06D40F40050E065206890
:1011F000C16C01F4C07109B9012100E000218A46E7
:1012000000BF206802F08FF981467049206888424B
:1012100002D14FF0A04000E020682168884204D04D
:101220001FB1062F01D0072F03D12068D0F80C8002
:101230000AE066492068884202D14FF0A04000E0F1
:1012400020688346DBF80C80BAF1000F08D108F063
:10125000007020BBB9F1000F2AD008F40050F0B99B
:101260002068006800F04000402821D108F40010F8
:10127000A8B9206802F02AF990B92068406820F0E7
:10128000600021684860E06D20F48050E065E06D0A
:1012900000F4807018B9E06D40F00100E06507E0EF
:1012A000E06D40F01000E065206E40F00100206627
:1012B0002046FFF743FB60202168086005F08000AE
:1012C00080280DD106F08000802809D1E06D40F41F
:1012D0008030E065204600F0ADF98020216808608C
:1012E00005F48070B0F5807F0FD106F48070B0F502
:1012F000807F0AD1E06D40F40030E0652046FFF7C2
:10130000C3FB4FF480702168086005F40070B0F5ED
:10131000007F0FD106F40070B0F5007F0AD1E06DB8
:1013200040F48020E0652046FFF7AFFB4FF40070EB
:101330002168086005F0100010282AD106F010007E
:10134000102826D1E06B10B90120009010E047B1C1
:1013500000BF1D48806800F4604048B10120009043
:1013600006E02068C06800F0010008B1012000908C
:10137000009801280AD1E06D40F48060E065206E9D
:1013800040F0020020662046FFF789FE1020216809
:10139000086005F48060B0F5806F13D106F48060BA
:1013A000B0F5806F0ED1E06D40F48040E065206EB6
:1013B00040F0080020664FF48060216808602046F5
:1013C000FFF7DCFABDE8F88F000300500001005081
:1013D0002DE9F84F04464FF000090020009014B9A1
:1013E0000120BDE8F88F606920B194F8240001283D
:1013F00000D100BFE06D30B9204600F01DF900209B
:10140000206684F8580020688168C1F3407131B1CA
:1014100020688168804A1140816000BF00BF206859
:1014200002F072F8A0B9206881687C4A114041F04E
:101430008051816000BF7A4800687A49B0FBF1F0C2
:10144000009002E00098401E009000980028F9D11A
:10145000206802F059F848B9E06D40F01000E065EE
:10146000206E40F0010020664FF00109206802F074
:1014700050F80646E06D00F0100000287CD1002EE8
:10148000FCD1E06D20F4807040F00200E06520683F
:1014900002F030F8B0B94FF0A04002F02BF88246CD
:1014A000614802F027F84AEA000ABAF1000F09D1B0
:1014B00060685E49896821F47C1101435B4A916050
:1014C00000BF00BF607FE16B41EA4030E168084344
:1014D000A168084394F8241040EA014594F82400D8
:1014E000012803D1208D401E45EA4045E06A28B11D
:1014F000A08D00F47870216B084305432068C06814
:101500004B49084028432168C8602068006920F0E2
:101510004060616B084321680861206801F0F9FFB1
:101520008046206801F0D2FF0746B8F1000F50D185
:10153000F7BB207F002141EA803194F8380041EA6E
:1015400040052068C06844F20201884328432168AE
:10155000C860206988B12068006940F48030216843
:1015600008612068D0F8C0006FF30D0021690843BE
:101570002168C1F8C0000EE045E02068006920F451
:101580008030216808612068D0F8C0006FF30D003A
:101590002168C1F8C00094F84000012813D1606CA4
:1015A00040F00101A06C0843E16C0843216D00E0AC
:1015B0000FE008432168096940F2FC729143084337
:1015C0002168086105E02068006920F001002168B9
:1015D00008616069012809D12068006B20F00F00C4
:1015E000216A491E08432168086305E02068006BF2
:1015F00020F00F0021680863E06D20F0020040F049
:101600000100E06505E0E06D40F01000E0654FF09E
:1016100001094846E5E60000C0FFFF5FC0FFFF7F0D
:1016200018000020400D030000010050000300508E
:101630000740F0FF7047000010B586B00446142143
:1016400001A8FEF7EEFD2068B0F1A04F4FD147484A
:101650000068401C454908600846006801280DD113
:1016600000BF4348C06C40F400504149C86408467C
:10167000C06C00F40050009000BF00BF00BF3C48A9
:10168000C06C40F001003A49C8640846C06C00F0E4
:101690000100009000BF00BF00BF0846C06C40F0D2
:1016A0000200C8640846C06C00F00200009000BF51
:1016B00000BF0320019002900020039001A94FF089
:1016C000904000F05BF84FF400600190032002901E
:1016D0000020039001A9274800F050F800220221C1
:1016E000122000F0CDF9122000F0B6F93BE02249BB
:1016F0002068884237D11D480068401C1B4908609B
:101700000846006801280DD100BF1948C06C40F49C
:1017100000501749C8640846C06C00F4005000909F
:1017200000BF00BF00BF1248C06C40F0010010496C
:10173000C8640846C06C00F00100009000BF00BF04
:1017400080200190032002900020039001A94FF017
:10175000904000F013F800220221122000F090F9CE
:10176000122000F079F906B010BD0000080000203A
:1017700000100240000400480001005078B5034604
:101780000022D0E0012696400D6805EA0604002CF0
:1017900072D04D68012D08D04D68022D05D04D68DE
:1017A000112D02D04D68122D13D1986856000325D3
:1017B000B540A8435600CD68B540284398605868A6
:1017C00001259540A8430D79C5F3001595402843A0
:1017D0005860D86856000325B540A84356008D6868
:1017E000B5402843D8604D68022D02D04D68122DB7
:1017F00013D1D60803F1200555F826005507EE0E43
:101800000F25B540A8435607F60E0D69B54028438D
:10181000D60803F1200545F8260018685600032570
:10182000B540A8430D7905F003055600B54028439F
:1018300018604D6805F08055B5F1805F72D100BF2A
:101840003C4D2D6E45F001053A4E356635462D6E00
:1018500005F00105009500BF00BF4FEAB6359608B8
:1018600055F8260095072E0F0F25B540A843B3F174
:10187000904F02D100251AE054E02F4DAB4201D128
:10188000012514E02D4DAB4201D102250FE02C4D76
:10189000AB4201D103250AE02A4DAB4201D1042518
:1018A00005E0294DAB4201D1052500E0062596074C
:1018B000360FB5402843254D960845F82600244D9F
:1018C0002868A0434D6805F48035B5F5803F00D108
:1018D00020431F4D28602D1D2868A0434D6805F446
:1018E0000035B5F5003F00D12043194D2D1D28606E
:1018F0002D1D2868A0434D6805F48015B5F5801F9F
:1019000000D12043124D083528602D1D2868A043C2
:101910004D6805F40015B5F5001F00D120430C4DAE
:101920000C352860521C0D68D540002D7FF42AAF7D
:1019300078BD000000100240000400480008004884
:10194000000C004800100048001400480800014046
:101950000004014010B5426921EA020302EA0104D1
:1019600043EA0443836110BD0AB1816100E08162F2
:101970007047000001480068704700000C0000201C
:101980000348006803490968084401490860704732
:101990000C0000201400002010B50024032000F0EB
:1019A000ADF8002000F008F808B1012401E000F0D3
:1019B0002FF8204610BD000070B5044600251148E0
:1019C0000068D8B10F4800684FF47A71B1FBF0F0AD
:1019D0000D490968B1FBF0F6304600F003FF58B935
:1019E000102C07D200222146501E00F049F807486B
:1019F000046004E0012502E0012500E001252846FD
:101A000070BD00001400002018000020100000200D
:101A100008B500BF0F48006E40F001000D49086690
:101A20000846006E00F00100009000BF00BF00BF3C
:101A30000846806D40F0805088650846806D00F053
:101A40008050009000BF00BF042000F057F800F065
:101A5000F5F808BD001002400146084600280DDBDD
:101A600000BF00BF00F01F0301229A4043099B0002
:101A700003F1E023C3F8002100BF00BF00BF70479F
:101A80002DE9F05F80460D46164602F019FB074629
:101A900039462A46334601F00700C0F1070ABAF179
:101AA000040F02D94FF0040A01E0C0F1070AD14641
:101AB00000F1040ABAF1070F02D24FF0000A01E068
:101AC000A0F1030AD4464FF0010A0AFA09FAAAF172
:101AD000010A0AEA020A0AFA0CFA4FF0010B0BFAA1
:101AE0000CFBABF1010B0BEA030B4AEA0B0421469A
:101AF000404602F0EDFABDE8F09F000000BF00F0A4
:101B00000702064B19684FF6FF031940044B0B43BD
:101B100043EA0221014B196000BF70470CED00E061
:101B20000000FA0502468ABB4148006800F4C06024
:101B3000B0F5806F2BD13E488030006820F4807073
:101B40003B4BC3F880001846006820F4C06040F4A6
:101B5000007018603748006832235843364BB0FB9A
:101B6000F3F0411C00E0491E3148406900F48060F8
:101B7000B0F5806F01D10029F5D12D48406900F4FE
:101B80008060B0F5806F51D10320704708E028488D
:101B90008030006820F48070254BC3F8800045E059
:101BA000B2F5007F3AD12248006800F4C060B0F579
:101BB000806F2AD11E488030006840F480701C4B32
:101BC000C3F880001846006820F4C06040F400703C
:101BD00018601848006832235843174BB0FBF3F0E5
:101BE000411C00E0491E1248406900F48060B0F5D5
:101BF000806F01D10029F5D10D48406900F4806063
:101C0000B0F5806F12D10320BFE70948803000682B
:101C100040F48070064BC3F8800007E00448006879
:101C200020F4C06040F48060014B18600020ACE7F5
:101C3000007000401800002040420F0003488068F8
:101C400040F4804001498860704700000070004007
:101C50002DE9F84304460027B846206800F4002028
:101C6000B0F5002F73D1B946D348806D00F0805095
:101C700078B900BFD048806D40F08050CE4988656B
:101C80000846806D00F08050009000BF00BF4FF00C
:101C90000109CA48006840F48070C8490860FFF72D
:101CA00069FE064606E0FFF765FE801B022801D9A3
:101CB000032705E0C148006800F480700028F2D0D6
:101CC00000BF002F46D1BC489030006800F440753A
:101CD000CDB1206CA84216D0B7489030006820F4EF
:101CE0004075B548D0F8900040F48030B249C1F852
:101CF00090000846D0F8900020F48030C1F89000A1
:101D00000846C0F8905005F00100A0B1FFF732FE80
:101D1000064608E0FFF72EFE801B41F2883188421C
:101D200001D9032706E0A4489030006800F00200C3
:101D30000028EFD000BF5FB99F489030006820F4C2
:101D40004070216C08439C49C1F8900003E00CE00E
:101D5000B84600E0B846B9F1010F05D19648806D4C
:101D600020F080509449886500BF207800F0010081
:101D700048B191488830006820F00300616808434A
:101D80008D49C1F88800207800F00200022809D1AE
:101D900089488830006820F00C00A1680843864913
:101DA000C1F88800207800F00400042809D1824896
:101DB0008830006820F03000E16808437E49C1F8AF
:101DC0008800207800F00800082809D17A48883077
:101DD000006820F0C000216908437749C1F88800F5
:101DE000207800F02000202809D17348883000684E
:101DF00020F44060616908436F49C1F88800207889
:101E000000F04000402809D16B488830006820F479
:101E10004050A16908436849C1F88800207800F063
:101E20008000802809D164488830006820F4404050
:101E3000E16908436049C1F88800208800F4807097
:101E4000B0F5807F09D15C488830006820F44030CC
:101E5000216A08435849C1F88800208800F40070BE
:101E6000B0F5007F09D154488830006820F4402044
:101E7000616A08435049C1F88800208800F48060F6
:101E8000B0F5806F13D14C488830006820F44010C2
:101E9000A16A0843484988310860A06AB0F5801FEC
:101EA00005D14548C06840F480104349C860208887
:101EB00000F40060B0F5006F13D13F48883000682F
:101EC00020F44000E16A08433B4988310860E06A39
:101ED000B0F5800F05D13848C06840F4801036490D
:101EE000C860208800F48050B0F5805F13D132487C
:101EF0008830006820F04070216B08432E498831FB
:101F00000860206BB0F1807F05D12B48C06840F499
:101F100080102949C860208800F40050B0F5005FA7
:101F200013D125488830006820F04060616B084379
:101F3000214988310860606BB0F1006F05D11E48FF
:101F4000C06840F480101C49C860208800F48040BC
:101F5000B0F5804F13D118488830006820F04060F9
:101F6000A16B0843144988310860A06BB0F1006F81
:101F700005D11148C06840F480100F49C86020881E
:101F800000F40040B0F5004F13D10B4888300068D2
:101F900020F04050E16B0843074988310860E06B4E
:101FA000B0F1805F05D10448C06840F48030024938
:101FB000C8604046BDE8F883001002400070004051
:101FC0002DE9F04104460D464FF0000814B90120F8
:101FD000BDE8F0817D48006800F00F00A8420ED2F5
:101FE0007A48006820F00F002843784908600846C6
:101FF000006800F00F00A84201D00120E8E7207837
:1020000000F00100002864D06068032823D17048E4
:10201000006800F0007008B90120D9E701F020FD48
:1020200006466C48864237D96948806800F0F0005F
:1020300030B1207800F0020002282DD1A06858BBF2
:102040006348806820F0F00040F0800060498860BC
:102050004FF0800820E06068022806D15C480068E4
:1020600000F4003040B90120B2E75948006800F49C
:10207000806008B90120ABE700F0B4F80646554887
:10208000864209D95248806820F0F00040F0800074
:102090004F4988604FF080084D48806820F0030069
:1020A000616808434A498860FFF764FC074608E016
:1020B000FFF760FCC01B41F28831884201D9032040
:1020C00086E74348806800F00C006168B0EB810F40
:1020D000EED1207800F00200022820D1207800F014
:1020E0000400042805D13A48806840F4E06038498B
:1020F0008860207800F00800082807D134488068FC
:1021000020F4605040F4E0603149886030488068D5
:1021100020F0F000A16808432D49886008E0B8F17C
:10212000800F05D12A48806820F0F0002849886097
:102130002648006800F00F00A84219D9234800681B
:1021400020F00F00284321490860FFF713FC0746E1
:1021500008E0FFF70FFCC01B41F28831884201D92B
:10216000032035E71948006800F00F00A842F0D1BD
:10217000207800F00400042807D11548806820F476
:10218000E060E168084312498860207800F00800A8
:10219000082808D10E48806820F46050216940EA80
:1021A000C1000B49886000F01DF809498968C1F336
:1021B0000311094A515C01F01F01C840074908603A
:1021C00007480068FFF7F8FB02E700000020024024
:1021D0000010024000B4C4043C4200081800002073
:1021E0001000002070B5224DAD6805F00C05042DDF
:1021F00001D120483AE01E4DAD6805F00C05082DD0
:1022000001D11D4832E01A4DAD6805F00C050C2DCA
:102210002BD1174DED6805F00304154DED68C5F39E
:1022200003156A1C022C0CD0032C09D1124DB5FBEE
:10223000F2F50F4EF668C6F3062605FB06F10AE036
:1022400000BF0C4DB5FBF2F5094EF668C6F3062645
:1022500005FB06F100BF00BF054DED68C5F3416504
:102260006D1C6B00B1FBF3F000E0002070BD0000BE
:10227000001002400024F40000366E012DE9F843FE
:10228000044614B90120BDE8F883207800F001006D
:10229000002865D0FC48806800F00C07FA48C06848
:1022A00000F003060C2F01D1032E01D0082F0AD114
:1022B000F548006800F40030002851D0606800281C
:1022C0004ED10120DFE700BF6068B0F5803F06D146
:1022D000ED48006840F48030EB4908601AE060681F
:1022E000B0F5A02F0BD1E848006840F48020E64903
:1022F00008600846006840F4803008600AE0E24860
:10230000006820F48030E04908600846006820F446
:102310008020086000BF606888B1FFF72BFB05468E
:1023200006E0FFF727FB401B642801D90320AAE73A
:10233000D548006800F400300028F2D010E0FFF724
:1023400019FB054606E0FFF715FB401B642801D981
:10235000032098E7CC48006800F400300028F2D150
:10236000207800F00200022860D1C748806800F0A1
:102370000C07C548C06800F003060C2F01D1022EDF
:1023800001D0042F18D1C048006800F4806018B153
:10239000E06808B9012076E7BB48406820F0FE40BD
:1023A000217C40EA0160B8494860B8480068FFF7FE
:1023B00003FB18B3012066E7E06800B3B248006889
:1023C00040F48070B0490860FFF7D4FA054606E093
:1023D000FFF7D0FA401B022801D9032053E7AA488F
:1023E000006800F480600028F2D0A748406820F020
:1023F000FE40217C40EA0160A349486016E0A24803
:10240000006820F48070A0490860FFF7B3FA054621
:1024100006E0FFF7AFFA401B022801D9032032E79C
:102420009948006800F480600028F2D1207800F01C
:102430000800082836D16069D0B19348943000680C
:1024400040F001009049C1F89400FFF793FA054667
:1024500006E0FFF78FFA401B022801D9032012E79C
:1024600089489430006800F002000028F1D019E09B
:1024700085489430006820F001008349C1F8940039
:10248000FFF778FA054606E0FFF774FA401B0228CA
:1024900001D90320F7E67C489430006800F0020080
:1024A0000028F1D1207800F00400042872D14FF008
:1024B00000087548806D012121EA107078B100BFD5
:1024C0007148806D40F080506F4988650846806D86
:1024D00000F08050009000BF00BF4FF001086C4832
:1024E000006800F48070B0B96948006840F48070FA
:1024F00067490860FFF73EFA054606E0FFF73AFA3B
:10250000401B022801D90320BDE66148006800F4A1
:1025100080700028F2D000BFA068012808D15A4876
:102520009030006840F001005749C1F8900021E068
:10253000A06805280FD154489030006840F004008E
:102540005149C1F890000846D0F8900040F00100D1
:10255000C1F890000EE04C489030006820F0010077
:102560004949C1F890000846D0F8900020F00400D6
:10257000C1F8900000BFA068A8B1FFF7FBF90546BD
:1025800009E0FFF7F7F9401B41F28831884202D990
:10259000032078E625E03C489030006800F0020017
:1025A0000028EED013E0FFF7E5F9054608E0FFF755
:1025B000E1F9401B41F28831884201D9032062E6EB
:1025C00031489030006800F002000028EFD1B8F1E7
:1025D000010F05D12C48806D20F080502A49886574
:1025E00000BF207800F02000202836D1A069D0B1AB
:1025F00025489830006840F001002349C1F8980050
:10260000FFF7B8F9054606E0FFF7B4F9401B0228CA
:1026100001D9032037E61C489830006800F002001A
:102620000028F1D019E018489830006820F0010027
:102630001549C1F89800FFF79DF9054606E0FFF738
:1026400099F9401B022801D903201CE60E48983056
:10265000006800F002000028F1D1E069002860D095
:102660000948806800F00C000C287FD0E06902283F
:1026700058D10548006820F0807003490860FFF7D2
:1026800079F905460DE0000000100240100000201E
:1026900000700040FFF76EF9401B022801D90320AB
:1026A000F1E54D48006800F000700028F2D1D4E94F
:1026B0000810401E41EA0011A06A41EA0021208E64
:1026C0000122C2EB500041EA40513420005DC2EBD0
:1026D000500041EA40612C20005D41EAC0603E4963
:1026E000C9683E4A114008433B49C8600846006833
:1026F00040F0807008600846C06840F08070C86094
:10270000FFF738F9054606E0FFF734F9401B0228C9
:1027100001D90320B7E53048006800F000700028B8
:10272000F2D056E02C48006820F080702A490860FA
:102730000846C06820F00300C8600846C068284901
:1027400008402549C860FFF715F9054607E00DE088
:10275000FFF710F9401B022801D9032093E51E481A
:10276000006800F000700028F2D132E0E069012832
:1027700000D188E51848C66806F00301206A814246
:1027800025D106F0F001606A401EB1EB001F1ED19A
:1027900006F4FE41A06AB1EB002F18D106F0784193
:1027A0002C20005DB1EBC06F11D106F4C001208E6A
:1027B0000122C2EB5000B1EB405F08D106F0C061CE
:1027C0003420005DC2EB5000B1EB406F01D001201E
:1027D00059E5002057E50000001002400C809F01E1
:1027E000FFFFEEFE70B504462546681EB0F1807FFF
:1027F00001D301200FE0681E4FF0E02148610F2156
:102800004FF0FF3001F064FC00204FF0E0218861C0
:1028100007200861002070BD7047704770470000B6
:1028200010B50346002200BF93F83C00012801D1F7
:10283000022010BD012083F83C0000BF22F0FF0001
:10284000CC6840EA040222F440708C6840EA04023A
:1028500022F480604C6840EA040222F400600C68B4
:1028600040EA040222F480500C6940EA040222F497
:1028700000504C6940EA040222F480400C6B40EAAC
:10288000040222F470200C8B40EA04421C4C1868AD
:10289000A04203D01B4C1868A04204D122F0805003
:1028A000CC6940EA0402164C1868A04203D0154CCB
:1028B0001868A0421BD122F470000C8D40EA04522B
:1028C00022F080700C6A40EA040222F000704C6A28
:1028D00040EA04020A4C1868A04203D0094C186868
:1028E000A04204D122F00050CC6A40EA04021868E9
:1028F000426400BF002083F83C0000BF00BF98E79F
:10290000002C014000340140F0B504468C461746C7
:1029100000BF94F83C00012801D10220F0BD012045
:1029200084F83C0000BF3868042814D004DC012877
:1029300007D002281ED109E0082811D0102819D18B
:1029400013E0012200255302092618E00222012586
:1029500053020A2613E00422022553020B260EE03E
:102960000822032553020C2609E0102204255302F5
:102970000D2604E0002200230025002600BF00BF32
:10298000BCF1010F03D0BCF1020F1ED10EE0206894
:10299000016E91437868A840104001439943B8689C
:1029A000B04018400143206801660FE02068416E86
:1029B00091437868A840104001439943B868B040FB
:1029C000184001432068416600E000BF00BF00BF1F
:1029D000002084F83C0000BF00BF9FE7704701461D
:1029E0000868406D40F400300A6850650020704768
:1029F0007047704730B502460B4600BF92F83C0066
:102A0000012801D1022030BD012082F83C0000BF26
:102A1000022082F83D0010684168106884681D4DEE
:102A20001068A84203D01C4D1068A84203D121F4BD
:102A30007001586801431948014018680143106843
:102A40004160144D1068A84213D01068B0F1804F57
:102A50000FD0134D1068A8420BD0124D1068A84239
:102A600007D00D4D1068A84203D00F4D1068A84242
:102A700005D124F080049868044310688460012024
:102A800082F83D0000BF002082F83C0000BF00BF7C
:102A9000B9E70000002C0140003401408FFFFFFD2A
:102AA00000040040000800400040014070B50446AA
:102AB0000D4615B994F844000BE0042D02D14520D1
:102AC000005D06E0082D02D14620005D01E04720B0
:102AD000005D012801D0012070BD1DB9022084F8DD
:102AE00044000EE0042D03D102214520015508E0E9
:102AF000082D03D102214620015502E00221472082
:102B0000015504222946206801F0B3F82068406C82
:102B100040F400402168486418492068884213D076
:102B20002068B0F1804F0FD01549206888420BD043
:102B300014492068884207D013492068884203D08E
:102B400012492068884210D120688068104900EA44
:102B50000106062E0FD0B6F5803F0CD02068006825
:102B600040F001002168086005E02068006840F03E
:102B70000100216808600020AEE70000002C014041
:102B800000040040000800400034014000400140C3
:102B900007000100704710B504460CB9012010BDB4
:102BA00094F83D0028B9002084F83C00204600F04D
:102BB00029F8022084F83D00211D206800F0EAFF7A
:102BC000012084F8480000BF84F83E0001213F2026
:102BD0000155402001554120015542200155432017
:102BE000015500BF00BF012084F844004520015575
:102BF000462001554720015500BF012084F83D00C3
:102C00000020CCE710B586B00446142101A8FDF7DA
:102C100008FB20492068884239D100BF1E48006E59
:102C200040F400601C4908660846006E00F400602D
:102C3000009000BF00BF00BF0846C06C40F001001C
:102C4000C8640846C06C00F00100009000BF00BFDF
:102C5000C8140190122002900120039000200490DB
:102C60000C20059001A94FF09040FEF787FD00224F
:102C700011461820FEF704FF1820FEF7EDFE002293
:102C800001211920FEF7FCFE1920FEF7E5FE06B033
:102C900010BD0000002C014000100240014691F8D8
:102CA0003D00012801D001207047022081F83D003D
:102CB000184B0868984213D00868B0F1804F0FD0C5
:102CC000154B086898420BD0144B0868984207D0FF
:102CD000134B0868984203D0124B0868984210D1F1
:102CE00008688068104B00EA0302062A0FD0B2F58C
:102CF000803F0CD00868006840F001000B68186045
:102D000005E00868006840F001000B6818600020CA
:102D1000CAE70000002C0140000400400008004009
:102D20000034014000400140070001002DE9F0415E
:102D300004460D4600BF94F83C00012802D1022051
:102D4000BDE8F081012084F83C0000BF022084F837
:102D50003D00206886683F48064026F47F4620688C
:102D600086602868702824D00CDC00F00F01002950
:102D700064D10011072861D2DFE800F053545556A2
:102D800049353F00344A811A90424FD009DCB0F5F2
:102D9000805F0DD0B0F5005F18D0B0F1101F4DD19D
:102DA00043E0102943D0202942D0502946D140E0A9
:102DB00045E0D5E902136A68206800F06BFF2068DF
:102DC000866846F077062068866038E0D5E9021309
:102DD0006A68206800F05EFF2068806840F48040E8
:102DE000216888602BE0EA686968206801F03EF994
:102DF0005021206800F05AFF21E0EA6869682068E5
:102E000001F047F96021206800F050FF17E0EA6800
:102E10006968206801F02AF94021206800F046FF27
:102E20000DE000BF00BF00BF00BF00BF00BF00BF7C
:102E300000BF2968206800F039FF00E000BF00BF34
:102E4000012084F83D0000BF002084F83C0000BF52
:102E500000BF75E788FFCEFF20001000704710B557
:102E6000044620680069C0F34000D8B12068C068FB
:102E7000C0F34000B0B16FF002002168086101208A
:102E800020772068806900F0030018B12046FFF722
:102E9000E5FF05E0204600F05DF9204600F047FA26
:102EA0000020207720680069C0F38000D8B1206836
:102EB000C068C0F38000B0B16FF004002168086101
:102EC000022020772068806900F4407018B1204605
:102ED000FFF7C4FF05E0204600F03CF9204600F073
:102EE00026FA0020207720680069C0F3C000D8B11E
:102EF0002068C068C0F3C000B0B16FF0080021685E
:102F00000861042020772068C06900F0030018B130
:102F10002046FFF7A3FF05E0204600F01BF92046FE
:102F200000F005FA0020207720680069C0F3001047
:102F3000D8B12068C068C0F30010B0B16FF01000C5
:102F400021680861082020772068C06900F440707B
:102F500018B12046FFF782FF05E0204600F0FAF89E
:102F6000204600F0E4F9002020772068006900F096
:102F7000010058B12068C06800F0010030B16FF066
:102F8000010021680861204600F078FA2068006995
:102F9000C0F3C01058B12068C068C0F3C01030B191
:102FA0006FF08000216808612046FFF736FC20683A
:102FB0000069C0F3002058B12068C068C0F3C01099
:102FC00030B16FF48070216808612046FFF724FC5F
:102FD00020680069C0F3801058B12068C068C0F351
:102FE000801030B16FF0400021680861204600F089
:102FF00046FA20680069C0F3401058B12068C068E4
:10300000C0F3401030B16FF0200021680861204605
:10301000FFF704FC20680069C0F3005058B1206835
:10302000C068C0F3005030B16FF4801021680861AF
:103030002046FFF7DDFC20680069C0F3405058B11E
:103040002068C068C0F3405030B16FF400102168B0
:1030500008612046FFF7C2FC20680069C0F3805079
:1030600058B12068C068C0F3805030B16FF4800060
:10307000216808612046FFF7BCFC20680069C0F3A6
:10308000C05058B12068C068C0F3C05030B16FF470
:103090000000216808612046FFF77CFD10BD00009C
:1030A00010B586B00446142101A8FDF7BAF82649E8
:1030B0002068884245D100BF2448C06C40F002001F
:1030C0002249C8640846C06C00F00200009000BFAE
:1030D00000BF00BF0846C06C40F00100C86408464D
:1030E000C06C00F00100009000BF00BF4FF4C04072
:1030F0000190022002900390002004900620059089
:1031000001A91348FEF73AFB4FF40040019002205A
:1031100002900390002004900420059001A90C481F
:10312000FEF72CFB4FF4E060019002200290039028
:10313000002004900620059001A94FF09040FEF772
:103140001DFB06B010BD0000002C01400010024025
:1031500000040048704770B504460D46164600BF8F
:1031600094F83C00012801D1022070BD012084F8B0
:103170003C0000BF0C2E51D005DC4EB1042E1ED0F9
:10318000082E7AD133E0102E60D0142EF9D175E0DC
:103190002946206800F096FD2068806940F008000C
:1031A000216888612068806920F0040021688861B6
:1031B00020688069296908432168886177E0294689
:1031C000206800F0D5FD2068806940F40060216827
:1031D00088612068806920F48060216888612068A7
:1031E0008069296940EA0120216888615FE02946F9
:1031F000206800F017FE2068C06940F008002168D0
:10320000C8612068C06920F004002168C861206896
:10321000C069296908432168C86148E029462068D7
:1032200000F05AFE2068C06940F400602168C8615F
:103230002068C06920F480602168C8612068C06986
:10324000296940EA01202168C86130E029462068E8
:1032500000F09CFE2068006D40F0080021680865C1
:103260002068006D20F00400216808652068006D6A
:10327000296908432168086519E017E02946206894
:1032800000F0BCFE2068006D40F400602168086515
:103290002068006D20F48060216808652068006D5A
:1032A000296940EA01202168086500E000BF00BFED
:1032B00000BF002084F83C0000BF00BF55E710B5F8
:1032C00004460CB9012010BD94F83D0028B9002037
:1032D00084F83C00204600F029F8022084F83D00E4
:1032E000211D206800F056FC012084F8480000BF32
:1032F00084F83E0001213F20015540200155412026
:103300000155422001554320015500BF00BF012057
:1033100084F84400452001554620015547200155B9
:1033200000BF012084F83D000020CCE770477047C3
:1033300070B504460D4615B994F83E0015E0042D0D
:1033400002D13F20005D10E0082D02D14020005D39
:103350000BE00C2D02D14120005D06E0102D02D1C2
:103360004220005D01E04320005D012801D00120E2
:1033700070BD1DB9022084F83E001AE0042D03D16F
:1033800002213F20015514E0082D03D102214020E5
:1033900001550EE00C2D03D102214120015508E01A
:1033A000102D03D102214220015502E002214320C9
:1033B000015501222946206800F04AFC274920686F
:1033C00088420FD02649206888420BD025492068C2
:1033D000884207D024492068884203D023492068C6
:1033E000884201D1012000E0002028B12068406C13
:1033F00040F400402168486418492068884213D08E
:103400002068B0F1804F0FD01949206888420BD056
:1034100018492068884207D011492068884203D0A3
:1034200010492068884210D120688068124900EA5B
:103430000106062E0FD0B6F5803F0CD0206800683C
:1034400040F001002168086005E02068006840F055
:1034500001002168086000208AE70000002C01407C
:103460000034014000400140004401400048014058
:10347000000400400008004007000100704770474A
:1034800000BFFEE78168024A1140491C8160704715
:10349000C0FFFF7F0146886800F01F0070470246AA
:1034A00002F1600000EB8103186800F0F8407047FB
:1034B000024602F1600000EB8103186800F0F8405A
:1034C00070470146C86800F0007070470146886880
:1034D000C0F3C000704701468868C0F3C000704761
:1034E0008168034A114041F0080181607047000083
:1034F000C0FFFF7F0146886800F001007047014669
:10350000886800F00100704701468868C0F30070C9
:10351000704701468868C0F380007047014688689C
:10352000C0F3800070470146C86800F4406008B9E5
:10353000012070470020FCE770B500F11404C1F3CE
:10354000406504EB85031C68C1F304560725B540AC
:10355000AC43C1F3045502FA05F52C431C6070BD61
:1035600070B500F11404C1F3406504EB85031C68D9
:10357000C1F304560725B540AC43C1F3045502FA24
:1035800005F52C431C6070BD826822F0E0720A438E
:1035900082607047826822F0E0720A43826070475E
:1035A00010B500F1600404EB81031C6824F00044B2
:1035B00014431C6010BD10B500F1600404EB8103DE
:1035C0001C6824F0004414431C6010BD426922F0C2
:1035D00000420A4342617047426922F000420A43B6
:1035E0004261704700B59BB00020189019901A9066
:1035F000202110A8FCF715FE3C2101A8FCF711FEC4
:103600004FF0A0404A4908604FF440304860002124
:1036100047488160C16001610121416104218161EC
:1036200000210177417703210162002180F82410F5
:103630004FF4A461C1624FF480610163002180F8FE
:103640003810C16380F84010FDF7C2FE08B1FCF7E6
:103650005AFE0020189018A93548FDF717FA08B14E
:10366000FCF751FE33481090062011900420129070
:103670007F201390042014900020159010A92C484E
:10368000FDF788FA08B1FCF73EFE2B4810900C209D
:10369000119010A92648FDF77DFA08B1FCF733FE1A
:1036A000264810901220119010A92148FDF772FAB7
:1036B00008B1FCF728FE1F48019009200290012064
:1036C00003907F20049004200590002006900320A2
:1036D000099000208DF828008DF829008DF82A0027
:1036E00084200B9080200C9000208DF8340001A9DC
:1036F0000F48FCF70DFE08B1FCF705FE0E480190DF
:1037000040F20F10029001A90948FCF701FE08B130
:10371000FCF7F9FD0948019040F21520029001A93B
:103720000348FCF7F5FD08B1FCF7EDFD1BB000BD4B
:103730001C000020040060080040C03A0200300471
:1037400000B597B020210FA8FCF76BFD3C2168461F
:10375000FCF767FD2F48304908604FF4403048605F
:1037600000212D488160C1600161416104218161B6
:1037700000210177417701210162002180F82410A6
:103780004FF4A461C1624FF480610163002180F8AD
:103790003810C16380F84010FDF71AFE08B1FCF73D
:1037A000B2FD1E480F9006201090042011907F203B
:1037B000129004201390002014900FA91648FDF7D2
:1037C000E9F908B1FCF79FFD144800900920019029
:1037D000012002907F200390042004900020059097
:1037E0000120089000208DF824008DF825008DF828
:1037F000260084200A9080200B9000208DF8300055
:1038000069460548FCF784FD08B1FCF77CFD17B05C
:1038100000BD000000010050880000201000C01012
:1038200000B587B0142102A8FCF7FBFC00BF2D48AF
:10383000C06C40F020002B49C8640846C06C00F002
:103840002000019000BF00BF00BF0846C06C40F0E0
:103850000100C8640846C06C00F00100019000BF80
:1038600000BF00BF0846C06C40F00200C8640846B4
:10387000C06C00F00200019000BF00BF00BF08460E
:10388000C06C40F00400C8640846C06C00F004003E
:10389000019000BF00BF012220214FF09040FEF7B1
:1038A00063F800224FF480610F48FEF75DF8202096
:1038B00002900120039004900220059002A94FF08D
:1038C0009040FDF75BFF4FF4806002900120039071
:1038D00004900220059002A90348FDF74FFF07B0AE
:1038E00000BD0000001002400008004800B59FB075
:1038F00000201B901C901D901E90189019901A90FB
:103900001590169017901C210EA8FCF78AFC342104
:1039100001A8FCF786FC4D484D490860002048602E
:1039200020214B48816040F61131C16000210161C6
:10393000416180218161FFF72EF908B1FCF7E3FCBA
:103940004FF480501B901BA94148FFF7EFF908B1D5
:10395000FCF7D9FC3E48FFF7B2FC08B1FCF7D3FCFA
:1039600070201890002019901A9018A93848FFF775
:1039700041F808B1FCF7C7FC012015901690002013
:10398000179015AA02213248FEF7BEFF08B1FCF7D6
:10399000BAFC60200E9000200F901090082011902B
:1039A0000020129013904FF40070149000220EA982
:1039B0002748FFF7D0FB08B1FCF7A5FC00200F90CB
:1039C00004220EA92248FFF7C6FB08B1FCF79BFCB6
:1039D00000200F9008220EA91D48FFF7BCFB08B17C
:1039E000FCF791FC70200E9000200F901190149025
:1039F0000C220EA91648FFF7AEFB08B1FCF783FCBA
:103A00001348FEF7ECFF4FF4006001904010029065
:103A100080100390052004900020059006900790E8
:103A2000089009900A9003200B9000200C904FF40E
:103A300080400D9001A90648FEF7F2FE08B1FCF7A0
:103A400062FC0348FFF72CFB1FB000BD002C0140B7
:103A5000F400002000BFFEE700BFFEE77047000053
:103A600070B5164DED6805F00304144DED68C5F30F
:103A700003156B1C022C0CD0032C09D1104DB5FB87
:103A8000F3F50E4EF668C6F3062605FB06F10AE0CE
:103A900000BF0C4DB5FBF3F5084EF668C6F30626DD
:103AA00005FB06F100BF00BF044DED68C5F341659D
:103AB0006D1C6A00B1FBF2F070BD00000010024006
:103AC00000366E010024F400704710B5FDF758FF72
:103AD00010BD00B5A5B0382117A8FCF7A2FB142132
:103AE00012A8FCF79EFB442101A8FCF79AFB0020DA
:103AF000FEF718F8012017900004189002201E907D
:103B000003211F91062117A84162552181620221DC
:103B1000C16201634163FEF7B1FB08B1FCF7F3FB3F
:103B20000F201290032013900020149015901690EF
:103B3000042112A8FEF744FA08B1FCF7E4FB4FF4A5
:103B4000004001908003109001A8FEF781F808B1B1
:103B5000FCF7D9FB25B000BD0548006840F47000B3
:103B6000034908604FF000600149803908607047E0
:103B700088ED00E010B50248FFF771F910BD0000B4
:103B8000F400002010B50248FFF769F910BD0000ED
:103B9000F400002010B50268264B98420BD0B0F11B
:103BA000804F08D0244B984205D0244B984202D035
:103BB000234B984203D122F070024B681A431D4BED
:103BC000984214D0B0F1804F11D01B4B98420ED0C8
:103BD0001A4B98420BD01A4B984208D0194B984276
:103BE00005D0194B984202D0184B984203D122F4C9
:103BF0004072CB681A4322F080034C6943EA040206
:103C000002608B68C3620B6883620A4B98420BD0D8
:103C10000B4B984208D00B4B984205D00A4B984268
:103C200002D00A4B984201D10B690363012343611F
:103C300010BD0000002C01400004004000080040BE
:103C40000034014000400140004401400048014070
:103C500030B501F01F05012404FA05F3046A9C4302
:103C60000462046A01F01F0502FA05F52C430462A0
:103C700030BD30B501F01F05042404FA05F3046AD1
:103C80009C430462046A01F01F0502FA05F52C4307
:103C9000046230BD30B50C46816821F47F4142EAB0
:103CA000032525432943816030BD00000A46816811
:103CB000034B194042F0070319438160704700002D
:103CC0008FFFCFFF30B5056A25F001050562026A56
:103CD00043688469204D2C4024F003040D682C4374
:103CE00022F002028D682A431C4DA84200D10FE049
:103CF0001B4DA84200D10BE01A4DA84200D107E0AD
:103D0000194DA84200D103E0184DA84206D100BFCA
:103D100022F00802CD682A4322F004020F4DA84287
:103D20000BD00F4DA84208D00E4DA84205D00E4D25
:103D3000A84202D00D4DA84207D123F4807323F48A
:103D400000734D692B438D692B43436084614D683B
:103D50004563026230BD00008FFFFEFF002C014072
:103D6000003401400040014000440140004801404F
:103D700030B5056A25F010050562026A436884695A
:103D8000224D2C4024F440740D6844EA052422F0AE
:103D900020028D6842EA05121D4DA84200D10FE0B5
:103DA0001C4DA84200D10BE01B4DA84200D100BF22
:103DB0001A4DA84200D100BF194DA84207D106E014
:103DC00022F08002CD6842EA051222F04002104D36
:103DD000A8420BD00F4DA84208D00F4DA84205D0E5
:103DE0000E4DA84202D00E4DA84209D123F48063A3
:103DF00023F400634D6943EA85038D6943EA850333
:103E0000436084614D688563026230BDFF8FFFFEB1
:103E1000002C0140003401400040014000440140BA
:103E20000048014030B5056A25F480750562026AD4
:103E30004368C469224D2C4024F003040D682C43D0
:103E400022F400728D6842EA05221E4DA84200D17C
:103E50000FE01D4DA84200D10BE01C4DA84200D13F
:103E600000BF1B4DA84200D100BF1A4DA84207D188
:103E700006E022F40062CD6842EA052222F4806264
:103E8000104DA8420BD0104DA84208D00F4DA842AB
:103E900005D00F4DA84202D00E4DA84209D123F4FF
:103EA000805323F400534D6943EA05138D6943EAB7
:103EB00005134360C4614D68C563026230BD0000F4
:103EC0008FFFFEFF002C0140003401400040014004
:103ED000004401400048014030B5056A25F4805592
:103EE0000562026A4368C469224D2C4024F4407480
:103EF0000D6844EA052422F400528D6842EA053236
:103F00001D4DA84200D10FE01C4DA84200D10BE08E
:103F10001B4DA84200D100BF1A4DA84200D100BFDE
:103F2000194DA84207D106E022F40042CD6842EACA
:103F3000053222F48042104DA8420BD00F4DA8420A
:103F400008D00F4DA84205D00E4DA84202D00E4D0C
:103F5000A84209D123F4804323F400434D6943EA86
:103F600085138D6943EA85134360C4614D68056418
:103F7000026230BDFF8FFFFE002C01400034014083
:103F800000400140004401400048014030B5056A4E
:103F900025F480350562026A4368046D114D2C409A
:103FA0000D682C4322F400320D8942EA05420E4D81
:103FB000A8420BD00D4DA84208D00D4DA84205D007
:103FC0000C4DA84202D00C4DA84204D123F48033FA
:103FD0004D6943EA0523436004654D6885640262C8
:103FE00030BD00008FFFFEFF002C01400034014077
:103FF00000400140004401400048014030B5056ADE
:1040000025F480150562026A4368046D114D2C4049
:104010000D6844EA052422F400120D8942EA055293
:104020000D4DA8420BD00D4DA84208D00C4DA84212
:1040300005D00C4DA84202D00B4DA84204D123F468
:1040400080234D6943EA8523436004654D68C56458
:10405000026230BDFF8FFFFE002C014000340140A2
:1040600000400140004401400048014030B50B468B
:104070001446026A056A25F001050562816921F08E
:10408000F00141EA041122F00A021A43816102623E
:1040900030BD30B50B461446056A25F010050562A3
:1040A0008169026A21F4704141EA043122F0A002E0
:1040B00042EA03128161026230BD00BFFEE70000E8
:1040C00002480068C0F30220704700000CED00E0D9
:1040D00010B5002804DB0A07130E054A135406E046
:1040E0000A07140E034A00F00F031B1FD45410BD1F
:1040F00000E400E018ED00E002E008C8121F08C16B
:10410000002AFAD170477047002001E001C1121F58
:10411000002AFBD17047FDF73FFCFFF7DAFCFFF701
:104120007FFBFFF7E3FBFFF75DFAFFF709FB00F00A
:1041300007F804E020214FF09040FDF70BFCF9E771
:1041400010B52748FEF7AAFD00212548FFF7F0F833
:1041500004212348FFF7ECF808212148FFF7E8F88D
:104160000C211F48FFF7E4F800211D48FEF79EFCD4
:1041700004211B48FEF79AFC08211948FEF796FC1B
:1041800040F2362016490968486315490968886372
:10419000002013490968C8631248FCF7F1FB124874
:1041A000FCF7EEFB0F480068406840F020000D4926
:1041B000096848600C480068406840F020000A49DF
:1041C0000968486006480068C06840F0010004497A
:1041D0000968C8604FF4316001490968086410BD7E
:1041E000F40000201C0000208800002010B50921E8
:1041F0000C48FCF7A4FB0C49088040F20F11094859
:10420000FCF79DFB0949088040F215210548FCF7A1
:1042100096FB0749088009210648FCF790FB0649F0
:10422000088010BD1C0000200000002002000020BB
:10423000040000208800002006000020000000008C
:104240000000000001020304060708090000000046
:104250000102030474420008000000201C0000005A
:10426000F8400008904200081C00002024050000CF
:1042700008410008000000000000000000000000ED
:104280000000000010000000010000000024F40005
:04000005080001D915
:00000001FF
