:020000040800F2
:1000000060040020F10100088D1D0008951B000808
:10001000891D00085D020008D323000800000000CD
:10002000000000000000000000000000FD1D0008AE
:100030006102000800000000911D0008FF1D00087B
:100040000B0200080B0200080B0200080B0200085C
:100050000B0200080B0200080B0200080B0200084C
:100060000B0200080B0200080B0200080B0200083C
:100070000B0200080B0200080B0200080B0200082C
:100080000B020008000000000B0200080B02000831
:100090000B0200080B0200080B0200080B0200080C
:1000A0008D1E00089D1E00080B0200080B020008B0
:1000B0000B0200080B0200080B0200080B020008EC
:1000C0000B0200080B0200080B0200080B020008DC
:1000D0000B0200080B0200080B0200080B020008CC
:1000E0000B0200080B0200080B0200080B020008BC
:1000F0000B0200080B0200080B02000800000000C1
:10010000000000000B020008000000000B020008C5
:100110000B020008000000000B0200080B020008A0
:100120000B0200080B0200080B0200080B0200087B
:100130000B02000800000000000000000B02000895
:100140000B0200080B020008000000000000000085
:10015000000000000000000000000000000000009F
:100160000000000000000000000000000B0200087A
:100170000B0200080000000000000000000000006A
:10018000000000000B02000800000000000000005A
:10019000000000000000000000000000000000005F
:1001A00000000000000000000B0200080B02000825
:1001B0000B0200080B0200080B0200080000000000
:1001C000000000000B02000800000000000000001A
:1001D0000B0200080B020008DFF810D000F02CF82A
:1001E000004800472F240008AFF30080600400207F
:1001F0000648804706480047FEE7FEE7FEE7FEE7C1
:10020000FEE7FEE7FEE7FEE7FEE7FEE7711E0008F9
:10021000D9010008D2B201E000F8012B491EFBD23F
:1002200070470022F6E710B513460A460446194601
:10023000FFF7F0FF204610BD064C074D06E0E068D2
:1002400040F0010394E8070098471034AC42F6D31D
:10025000FFF7C6FFC0240008E024000800BFFEE747
:10026000704772B600BFFEE770B5044600F00CF9A7
:1002700006462546681C10B104480068054400BFC6
:1002800000F002F9801BA842FAD370BD08000020DC
:1002900078B503460022D0E0012696400D6805EAB5
:1002A0000604002C72D04D68012D08D04D68022D37
:1002B00005D04D68112D02D04D68122D13D19868CC
:1002C00056000325B540A8435600CD68B5402843E5
:1002D0009860586801259540A8430D79C5F300152D
:1002E000954028435860D86856000325B540A84378
:1002F00056008D68B5402843D8604D68022D02D065
:100300004D68122D13D1D60803F1200555F82600AB
:100310005507EE0E0F25B540A8435607F60E0D699A
:10032000B5402843D60803F1200545F82600186893
:1003300056000325B540A8430D7905F00305560086
:10034000B540284318604D6805F08055B5F1805FD1
:1003500072D100BF3C4D2D6E45F001053A4E356619
:1003600035462D6E05F00105009500BF00BF4FEA30
:10037000B635960855F8260095072E0F0F25B5407F
:10038000A843B3F1904F02D100251AE054E02F4D5D
:10039000AB4201D1012514E02D4DAB4201D1022524
:1003A0000FE02C4DAB4201D103250AE02A4DAB42B0
:1003B00001D1042505E0294DAB4201D1052500E01E
:1003C00006259607360FB5402843254D960845F873
:1003D0002600244D2868A0434D6805F48035B5F506
:1003E000803F00D120431F4D28602D1D2868A04369
:1003F0004D6805F40035B5F5003F00D12043194D97
:100400002D1D28602D1D2868A0434D6805F480151A
:10041000B5F5801F00D12043124D083528602D1DF1
:100420002868A0434D6805F40015B5F5001F00D1FC
:1004300020430C4D0C352860521C0D68D540002D12
:100440007FF42AAF78BD000000100240000400488D
:1004500000080048000C0048001000480014004844
:10046000080001400004014010B5426921EA02037E
:1004700002EA010443EA0443836110BD0AB18161C9
:1004800000E081627047000001480068704700008A
:100490000000002003480068034909680844014936
:1004A00008607047000000200800002010B50024FC
:1004B000032000F0ADF8002000F008F808B1012496
:1004C00001E000F02FF8204610BD000070B5044692
:1004D000002511480068D8B10F4800684FF47A71C0
:1004E000B1FBF0F00D490968B1FBF0F6304600F0C1
:1004F0004BFD58B9102C07D200222146501E00F0A7
:1005000049F80748046004E0012502E0012500E005
:100510000125284670BD0000080000200C000020C6
:100520000400002008B500BF0F48006E40F0010035
:100530000D4908660846006E00F00100009000BFFB
:1005400000BF00BF0846806D40F0805088650846B7
:10055000806D00F08050009000BF00BF042000F0CC
:1005600057F800F0F5F808BD0010024001460846B3
:1005700000280DDB00BF00BF00F01F0301229A40DE
:1005800043099B0003F1E023C3F8002100BF00BF33
:1005900000BF70472DE9F05F80460D46164601F01A
:1005A0001BFF074639462A46334601F00700C0F1D3
:1005B000070ABAF1040F02D94FF0040A01E0C0F1B2
:1005C000070AD14600F1040ABAF1070F02D24FF030
:1005D000000A01E0A0F1030AD4464FF0010A0AFA2A
:1005E00009FAAAF1010A0AEA020A0AFA0CFA4FF019
:1005F000010B0BFA0CFBABF1010B0BEA030B4AEA04
:100600000B042146404601F0EFFEBDE8F09F0000DC
:1006100000BF00F00702064B19684FF6FF031940B0
:10062000044B0B4343EA0221014B196000BF7047A2
:100630000CED00E00000FA0502468ABB4148006864
:1006400000F4C060B0F5806F2BD13E488030006868
:1006500020F480703B4BC3F880001846006820F4FB
:10066000C06040F400701860374800683223584377
:10067000364BB0FBF3F0411C00E0491E31484069A5
:1006800000F48060B0F5806F01D10029F5D12D48CC
:10069000406900F48060B0F5806F51D1032070474D
:1006A00008E028488030006820F48070254BC3F8AB
:1006B000800045E0B2F5007F3AD12248006800F49E
:1006C000C060B0F5806F2AD11E488030006840F4C9
:1006D00080701C4BC3F880001846006820F4C0608E
:1006E00040F4007018601848006832235843174BD4
:1006F000B0FBF3F0411C00E0491E1248406900F4D1
:100700008060B0F5806F01D10029F5D10D484069B6
:1007100000F48060B0F5806F12D10320BFE7094874
:100720008030006840F48070064BC3F8800007E01A
:100730000448006820F4C06040F48060014B1860F9
:100740000020ACE7007000400C00002040420F0089
:100750000348806840F48040014988607047000089
:10076000007000402DE9F04104460D464FF00008AE
:1007700014B90120BDE8F0817D48006800F00F0049
:10078000A8420ED27A48006820F00F00284378492A
:1007900008600846006800F00F00A84201D0012060
:1007A000E8E7207800F00100002864D060680328A2
:1007B00023D17048006800F0007008B90120D9E723
:1007C00001F0E8FA06466C48864237D969488068E5
:1007D00000F0F00030B1207800F0020002282DD1A6
:1007E000A06858BB6348806820F0F00040F08000AB
:1007F000604988604FF0800820E06068022806D1D8
:100800005C48006800F4003040B90120B2E7594864
:10081000006800F4806008B90120ABE700F0B4F88C
:1008200006465548864209D95248806820F0F000B3
:1008300040F080004F4988604FF080084D48806844
:1008400020F00300616808434A498860FFF71CFEF6
:10085000074608E0FFF718FEC01B41F288318842C6
:1008600001D9032086E74348806800F00C006168E6
:10087000B0EB810FEED1207800F00200022820D1E9
:10088000207800F00400042805D13A48806840F43C
:10089000E06038498860207800F00800082807D117
:1008A0003448806820F4605040F4E060314988604A
:1008B0003048806820F0F000A16808432D49886026
:1008C00008E0B8F1800F05D12A48806820F0F000D8
:1008D000284988602648006800F00F00A84219D90E
:1008E0002348006820F00F00284321490860FFF7E3
:1008F000CBFD074608E0FFF7C7FDC01B41F288317A
:10090000884201D9032035E71948006800F00F003C
:10091000A842F0D1207800F00400042807D115483F
:10092000806820F4E060E16808431249886020781C
:1009300000F00800082808D10E48806820F46050B4
:10094000216940EAC1000B49886000F01DF809499F
:100950008968C1F30311094A515C01F01F01C840C5
:100960000749086007480068FFF7B0FD02E700008C
:10097000002002400010024000B4C404A824000873
:100980000C0000200400002070B5224DAD6805F079
:100990000C05042D01D120483AE01E4DAD6805F04C
:1009A0000C05082D01D11D4832E01A4DAD6805F047
:1009B0000C050C2D2BD1174DED6805F00304154DDA
:1009C000ED68C5F303156A1C022C0CD0032C09D169
:1009D000124DB5FBF2F50F4EF668C6F3062605FB81
:1009E00006F10AE000BF0C4DB5FBF2F5094EF668C2
:1009F000C6F3062605FB06F100BF00BF054DED68F6
:100A0000C5F341656D1C6B00B1FBF3F000E0002005
:100A100070BD0000001002400024F40000366E019A
:100A20002DE9F843044614B90120BDE8F883207885
:100A300000F00100002865D0FC48806800F00C0739
:100A4000FA48C06800F003060C2F01D1032E01D034
:100A5000082F0AD1F548006800F40030002851D072
:100A6000606800284ED10120DFE700BF6068B0F564
:100A7000803F06D1ED48006840F48030EB490860C3
:100A80001AE06068B0F5A02F0BD1E848006840F488
:100A90008020E64908600846006840F4803008601D
:100AA0000AE0E248006820F48030E0490860084627
:100AB000006820F48020086000BF606888B1FFF7FC
:100AC000E3FC054606E0FFF7DFFC401B642801D984
:100AD0000320AAE7D548006800F400300028F2D0CF
:100AE00010E0FFF7D1FC054606E0FFF7CDFC401B08
:100AF000642801D9032098E7CC48006800F400304E
:100B00000028F2D1207800F00200022860D1C74806
:100B1000806800F00C07C548C06800F003060C2F81
:100B200001D1022E01D0042F18D1C048006800F472
:100B3000806018B1E06808B9012076E7BB484068DA
:100B400020F0FE40217C40EA0160B8494860B84886
:100B50000068FFF7BBFC18B3012066E7E06800B34C
:100B6000B248006840F48070B0490860FFF78CFC20
:100B7000054606E0FFF788FC401B022801D9032048
:100B800053E7AA48006800F480600028F2D0A74824
:100B9000406820F0FE40217C40EA0160A3494860A3
:100BA00016E0A248006820F48070A0490860FFF7B2
:100BB0006BFC054606E0FFF767FC401B022801D9E5
:100BC000032032E79948006800F480600028F2D1E1
:100BD000207800F00800082836D16069D0B1934829
:100BE0009430006840F001009049C1F89400FFF78C
:100BF0004BFC054606E0FFF747FC401B022801D9E5
:100C0000032012E789489430006800F002000028B1
:100C1000F1D019E085489430006820F00100834944
:100C2000C1F89400FFF730FC054606E0FFF72CFC06
:100C3000401B022801D90320F7E67C489430006865
:100C400000F002000028F1D1207800F00400042810
:100C500072D14FF000087548806D012121EA1070B3
:100C600078B100BF7148806D40F080506F49886551
:100C70000846806D00F08050009000BF00BF4FF02C
:100C800001086C48006800F48070B0B969480068D9
:100C900040F4807067490860FFF7F6FB054606E000
:100CA000FFF7F2FB401B022801D90320BDE6614893
:100CB000006800F480700028F2D000BFA06801280E
:100CC00008D15A489030006840F001005749C1F8F7
:100CD000900021E0A06805280FD1544890300068AA
:100CE00040F004005149C1F890000846D0F8900047
:100CF00040F00100C1F890000EE04C4890300068D0
:100D000020F001004949C1F890000846D0F8900051
:100D100020F00400C1F8900000BFA068A8B1FFF760
:100D2000B3FB054609E0FFF7AFFB401B41F28831FA
:100D3000884202D9032078E625E03C4890300068DC
:100D400000F002000028EED013E0FFF79DFB0546FF
:100D500008E0FFF799FB401B41F28831884201D936
:100D6000032062E631489030006800F0020000285D
:100D7000EFD1B8F1010F05D12C48806D20F08050E3
:100D80002A49886500BF207800F02000202836D14D
:100D9000A069D0B125489830006840F0010023498F
:100DA000C1F89800FFF770FB054606E0FFF76CFB03
:100DB000401B022801D9032037E61C489830006800
:100DC00000F002000028F1D019E0184898300068BF
:100DD00020F001001549C1F89800FFF755FB0546C2
:100DE00006E0FFF751FB401B022801D903201CE657
:100DF0000E489830006800F002000028F1D1E06948
:100E0000002860D00948806800F00C000C287FD0D2
:100E1000E069022858D10548006820F08070034935
:100E20000860FFF731FB05460DE0000000100240AE
:100E30000400002000700040FFF726FB401B022842
:100E400001D90320F1E54D48006800F0007000284A
:100E5000F2D1D4E90810401E41EA0011A06A41EA2B
:100E60000021208E0122C2EB500041EA4051342083
:100E7000005DC2EB500041EA40612C20005D41EA78
:100E8000C0603E49C9683E4A114008433B49C860BA
:100E90000846006840F0807008600846C06840F06E
:100EA0008070C860FFF7F0FA054606E0FFF7ECFA3D
:100EB000401B022801D90320B7E53048006800F044
:100EC00000700028F2D056E02C48006820F08070B6
:100ED0002A4908600846C06820F00300C860084638
:100EE000C068284908402549C860FFF7CDFA054683
:100EF00007E00DE0FFF7C8FA401B022801D90320E4
:100F000093E51E48006800F000700028F2D132E03E
:100F1000E069012800D188E51848C66806F0030199
:100F2000206A814225D106F0F001606A401EB1EBD3
:100F3000001F1ED106F4FE41A06AB1EB002F18D1AC
:100F400006F078412C20005DB1EBC06F11D106F4A2
:100F5000C001208E0122C2EB5000B1EB405F08D1EE
:100F600006F0C0613420005DC2EB5000B1EB406F71
:100F700001D0012059E5002057E500000010024093
:100F80000C809F01FFFFEEFE70B504462546681EEB
:100F9000B0F1807F01D301200FE0681E4FF0E02107
:100FA00048610F214FF0FF3001F01EFA00204FF092
:100FB000E021886107200861002070BD70477047FC
:100FC0007047000010B50346002200BF93F83C00B4
:100FD000012801D1022010BD012083F83C0000BF90
:100FE00022F0FF00CC6840EA040222F440708C68D2
:100FF00040EA040222F480604C6840EA040222F4D1
:1010000000600C6840EA040222F480500C6940EA57
:10101000040222F400504C6940EA040222F48040A9
:101020000C6B40EA040222F470200C8B40EA04426C
:101030001C4C1868A04203D01B4C1868A04204D175
:1010400022F08050CC6940EA0402164C1868A04295
:1010500003D0154C1868A0421BD122F470000C8DEF
:1010600040EA045222F080700C6A40EA040222F046
:1010700000704C6A40EA04020A4C1868A04203D08F
:10108000094C1868A04204D122F00050CC6A40EA12
:1010900004021868426400BF002083F83C0000BFCF
:1010A00000BF98E7002C014000340140F0B5044631
:1010B0008C46174600BF94F83C00012801D102205D
:1010C000F0BD012084F83C0000BF3868042814D02B
:1010D00004DC012807D002281ED109E0082811D01D
:1010E000102819D113E0012200255302092618E027
:1010F0000222012553020A2613E00422022553028C
:101100000B260EE00822032553020C2609E01022CC
:10111000042553020D2604E00022002300250026AA
:1011200000BF00BFBCF1010F03D0BCF1020F1ED104
:101130000EE02068016E91437868A840104001439A
:101140009943B868B04018400143206801660FE039
:101150002068416E91437868A8401040014399434C
:10116000B868B040184001432068416600E000BF05
:1011700000BF00BF002084F83C0000BF00BF9FE715
:10118000704701460868406D40F400300A685065B9
:10119000002070477047704730B502460B4600BFCD
:1011A00092F83C00012801D1022030BD012082F8D4
:1011B0003C0000BF022082F83D00106841681068C2
:1011C00084681D4D1068A84203D01C4D1068A842C9
:1011D00003D121F47001586801431948014018688F
:1011E000014310684160144D1068A84213D0106884
:1011F000B0F1804F0FD0134D1068A8420BD0124DA4
:101200001068A84207D00D4D1068A84203D00F4DBA
:101210001068A84205D124F080049868044310683F
:101220008460012082F83D0000BF002082F83C006D
:1012300000BF00BFB9E70000002C014000340140AE
:101240008FFFFFFD00040040000800400040014007
:1012500070B504460D4615B994F844000BE0042D12
:1012600002D14520005D06E0082D02D14620005D38
:1012700001E04720005D012801D0012070BD1DB9AB
:10128000022084F844000EE0042D03D10221452001
:10129000015508E0082D03D102214620015502E046
:1012A00002214720015504222946206800F06DFEE6
:1012B0002068406C40F40040216848641849206868
:1012C000884213D02068B0F1804F0FD015492068B4
:1012D00088420BD014492068884207D013492068FF
:1012E000884203D012492068884210D12068806863
:1012F000104900EA0106062E0FD0B6F5803F0CD04B
:101300002068006840F001002168086005E020685E
:10131000006840F00100216808600020AEE700008E
:10132000002C01400004004000080040003401404F
:101330000040014007000100704710B504460CB999
:10134000012010BD94F83D0028B9002084F83C002D
:10135000204600F029F8022084F83D00211D206875
:1013600000F0A4FD012084F8480000BF84F83E008E
:1013700001213F20015540200155412001554220C7
:1013800001554320015500BF00BF012084F84400EF
:1013900045200155462001554720015500BF012039
:1013A00084F83D000020CCE710B586B00446142137
:1013B00001A8FEF736FF20492068884239D100BFD6
:1013C0001E48006E40F400601C4908660846006E26
:1013D00000F40060009000BF00BF00BF0846C06C72
:1013E00040F00100C8640846C06C00F001000090A5
:1013F00000BF00BFC814019012200290012003908A
:10140000002004900C20059001A94FF09040FEF7B9
:101410003FFF002211461820FFF7BCF81820FFF705
:10142000A5F8002211461920FFF7B4F81920FFF79C
:101430009DF806B010BD0000002C014000100240D5
:101440002DE9F04104460D4600BF94F83C00012808
:1014500002D10220BDE8F081012084F83C0000BFE9
:10146000022084F83D00206886683F48064026F444
:101470007F46206886602868702824D00CDC00F045
:101480000F01002964D10011072861D2DFE800F0C4
:101490005354555649353F00344A811A90424FD033
:1014A00009DCB0F5805F0DD0B0F5005F18D0B0F169
:1014B000101F4DD143E0102943D0202942D050299C
:1014C00046D140E045E0D5E902136A68206800F0A3
:1014D0006DFD2068866846F077062068866038E0F3
:1014E000D5E902136A68206800F060FD2068806812
:1014F00040F48040216888602BE0EA6869682068D1
:1015000000F040FF5021206800F05CFD21E0EA6817
:101510006968206800F049FF6021206800F052FDF2
:1015200017E0EA686968206800F02CFF4021206815
:1015300000F048FD0DE000BF00BF00BF00BF00BFCE
:1015400000BF00BF00BF2968206800F03BFD00E03D
:1015500000BF00BF012084F83D0000BF002084F8D8
:101560003C0000BF00BF75E788FFCEFF20001000E1
:10157000704710B5044620680069C0F34000D8B138
:101580002068C068C0F34000B0B16FF0020021686D
:101590000861012020772068806900F0030018B1FD
:1015A0002046FFF7E5FF05E0204600F05DF9204604
:1015B00000F047FA0020207720680069C0F380001F
:1015C000D8B12068C068C0F38000B0B16FF00400EB
:1015D00021680861022020772068806900F440704B
:1015E00018B12046FFF7C4FF05E0204600F03CF9A3
:1015F000204600F026FA0020207720680069C0F31A
:10160000C000D8B12068C068C0F3C000B0B16FF0AE
:10161000080021680861042020772068C06900F074
:10162000030018B12046FFF7A3FF05E0204600F0B5
:101630001BF9204600F005FA002020772068006999
:10164000C0F30010D8B12068C068C0F30010B0B17A
:101650006FF0100021680861082020772068C069B9
:1016600000F4407018B12046FFF782FF05E02046E5
:1016700000F0FAF8204600F0E4F900202077206816
:10168000006900F0010058B12068C06800F0010056
:1016900030B16FF0010021680861204600F078FA4F
:1016A00020680069C0F3C01058B12068C068C0F35A
:1016B000C01030B16FF08000216808612046FFF74C
:1016C0007EFC20680069C0F3002058B12068C06823
:1016D000C0F3C01030B16FF48070216808612046FB
:1016E000FFF76CFC20680069C0F3801058B12068D7
:1016F000C068C0F3801030B16FF04000216808610D
:10170000204600F046FA20680069C0F3401058B146
:101710002068C068C0F3401030B16FF0200021682D
:1017200008612046FFF74CFC20680069C0F30050B8
:1017300058B12068C068C0F3005030B16FF4801019
:10174000216808612046FFF725FD20680069C0F385
:10175000405058B12068C068C0F3405030B16FF4B9
:101760000010216808612046FFF70AFD2068006923
:10177000C0F3805058B12068C068C0F3805030B1C9
:101780006FF48000216808612046FFF704FD20689F
:101790000069C0F3C05058B12068C068C0F3C050A1
:1017A00030B16FF40000216808612046FFF7C4FDE6
:1017B00010BD000010B586B00446142101A8FEF744
:1017C00030FD26492068884245D100BF2448C06CBE
:1017D00040F002002249C8640846C06C00F00200D4
:1017E000009000BF00BF00BF0846C06C40F0010081
:1017F000C8640846C06C00F00100009000BF00BF44
:101800004FF4C04001900220029003900020049009
:101810000620059001A91348FEF73AFD4FF4004059
:101820000190022002900390002004900420059073
:1018300001A90C48FEF72CFD4FF4E0600190022056
:1018400002900390002004900620059001A94FF01B
:101850009040FEF71DFD06B010BD0000002C0140B9
:101860000010024000040048704770B504460D4661
:10187000164600BF94F83C00012801D1022070BD3B
:10188000012084F83C0000BF0C2E51D005DC4EB185
:10189000042E1ED0082E7AD133E0102E60D0142EE4
:1018A000F9D175E02946206800F098FB206880692E
:1018B00040F00800216888612068806920F00400F9
:1018C00021688861206880692969084321688861E6
:1018D00077E02946206800F0D7FB2068806940F453
:1018E0000060216888612068806920F48060216838
:1018F000886120688069296940EA0120216888613F
:101900005FE02946206800F019FC2068C06940F0BB
:1019100008002168C8612068C06920F004002168BF
:10192000C8612068C069296908432168C86148E026
:101930002946206800F05CFC2068C06940F4006023
:101940002168C8612068C06920F480602168C8618E
:101950002068C069296940EA01202168C86130E037
:101960002946206800F09EFC2068006D40F00800C9
:10197000216808652068006D20F004002168086572
:101980002068006D296908432168086519E017E09F
:101990002946206800F0BEFC2068006D40F400601D
:1019A000216808652068006D20F480602168086562
:1019B0002068006D296940EA01202168086500E07F
:1019C00000BF00BF00BF002084F83C0000BF00BF84
:1019D00055E710B504460CB9012010BD94F83D0040
:1019E00028B9002084F83C00204600F029F80220A5
:1019F00084F83D00211D206800F058FA012084F889
:101A0000480000BF84F83E0001213F2001554020DE
:101A1000015541200155422001554320015500BF89
:101A200000BF012084F8440045200155462001559F
:101A30004720015500BF012084F83D000020CCE77D
:101A40007047704770B504460D4615B994F83E00CE
:101A500015E0042D02D13F20005D10E0082D02D1D9
:101A60004020005D0BE00C2D02D14120005D06E01E
:101A7000102D02D14220005D01E04320005D0128CD
:101A800001D0012070BD1DB9022084F83E001AE08B
:101A9000042D03D102213F20015514E0082D03D16C
:101AA0000221402001550EE00C2D03D102214120DE
:101AB000015508E0102D03D102214220015502E01A
:101AC00002214320015501222946206800F04CFAEA
:101AD0002749206888420FD02649206888420BD0C9
:101AE00025492068884207D024492068884203D0CD
:101AF00023492068884201D1012000E0002028B15C
:101B00002068406C40F4004021684864184920680F
:101B1000884213D02068B0F1804F0FD01949206857
:101B200088420BD018492068884207D011492068A4
:101B3000884203D010492068884210D1206880680C
:101B4000124900EA0106062E0FD0B6F5803F0CD0F0
:101B50002068006840F001002168086005E0206806
:101B6000006840F001002168086000208AE700005A
:101B7000002C01400034014000400140004401407D
:101B80000048014000040040000800400700010038
:101B90007047704700BFFEE700B587B0142102A868
:101BA000FEF73FFB00BF1D48C06C40F020001B4902
:101BB000C8640846C06C00F02000019000BF00BF60
:101BC00000BF0846C06C40F00100C8640846C06C05
:101BD00000F00100019000BF00BF00BF0846C06CCC
:101BE00040F00200C8640846C06C00F0020001909A
:101BF00000BF00BF012220214FF09040FEF73EFCC5
:101C0000202002900120039004900220059002A958
:101C10004FF09040FEF73CFB07B000BD00100240C3
:101C200000B59FB000201B901C901D901E90189036
:101C300019901A901590169017901C210EA8FEF777
:101C4000F0FA342101A8FEF7ECFA4D484D4908603E
:101C50000020486020214B48816040F61131C1606E
:101C600000210161416180218161FFF766FB08B1BC
:101C7000FEF7F7FA4FF480501B901BA94148FFF77D
:101C8000DFFB08B1FEF7EDFA3E48FFF7A2FE08B110
:101C9000FEF7E7FA70201890002019901A9018A902
:101CA0003848FFF779FA08B1FEF7DBFA0120159002
:101CB00016900020179015AA02213248FFF7F6F976
:101CC00008B1FEF7CEFA70200E9000200F9002208F
:101CD0001090082011900020129013901490002270
:101CE0000EA92848FFF7C1FD08B1FEF7BAFA002097
:101CF0000F9004220EA92348FFF7B7FD08B1FEF7A5
:101D0000B0FA00200F9008220EA91E48FFF7ADFD83
:101D100008B1FEF7A6FA60200E9000200F901090F8
:101D200011900C220EA91748FFF79FFD08B1FEF78E
:101D300098FA1448FFF725FA4FF40060019040101C
:101D400002908010039005200490002005900690DA
:101D50000790089009900A9003200B9000200C90A7
:101D60004FF480400D9001A90648FFF72BF908B108
:101D7000FEF777FA0348FFF71DFD1FB000BD000016
:101D8000002C01401000002000BFFEE700BFFEE76E
:101D90007047000070B5164DED6805F00304144D52
:101DA000ED68C5F303156B1C022C0CD0032C09D174
:101DB000104DB5FBF3F50E4EF668C6F3062605FB8F
:101DC00006F10AE000BF0C4DB5FBF3F5084EF668CE
:101DD000C6F3062605FB06F100BF00BF044DED6803
:101DE000C5F341656D1C6A00B1FBF2F070BD0000E7
:101DF0000010024000366E010024F400704710B558
:101E0000FEF748FB10BD00B593B0382105A8FEF7DA
:101E100008FA14216846FEF704FA0020FEF70CFCCD
:101E2000012005900004069002200C9003210D91E2
:101E300006210E9155210F910221109111911291BD
:101E400005A8FEF7EDFD08B1FEF70BFA0F20009094
:101E50000320019000200290039004900421684622
:101E6000FEF780FC08B1FEF7FCF913B000BD0000DE
:101E70000548006840F47000034908604FF00060B6
:101E8000014980390860704788ED00E010B50248CC
:101E9000FFF76FFB10BD00001000002010B50248D6
:101EA000FFF767FB10BD00001000002010B50268AE
:101EB000264B98420BD0B0F1804F08D0244B98426B
:101EC00005D0244B984202D0234B984203D122F0F4
:101ED00070024B681A431D4B984214D0B0F1804FEA
:101EE00011D01B4B98420ED01A4B98420BD01A4B74
:101EF000984208D0194B984205D0194B984202D00D
:101F0000184B984203D122F44072CB681A4322F056
:101F100080034C6943EA040202608B68C3620B6869
:101F200083620A4B98420BD00B4B984208D00B4B64
:101F3000984205D00A4B984202D00A4B984201D1F0
:101F40000B6903630123436110BD0000002C0140B5
:101F500000040040000800400034014000400140FF
:101F6000004401400048014030B501F01F05012444
:101F700004FA05F3046A9C430462046A01F01F0535
:101F800002FA05F52C43046230BD30B501F01F059F
:101F9000042404FA05F3046A9C430462046A01F011
:101FA0001F0502FA05F52C43046230BD30B50C461E
:101FB000816821F47F4142EA03252543294381605A
:101FC00030BD00000A468168034B194042F0070308
:101FD00019438160704700008FFFCFFF30B5056A5D
:101FE00025F001050562026A43688469204D2C4092
:101FF00024F003040D682C4322F002028D682A436A
:102000001C4DA84200D10FE01B4DA84200D10BE0AF
:102010001A4DA84200D107E0194DA84200D103E0B3
:10202000184DA84206D100BF22F00802CD682A430D
:1020300022F004020F4DA8420BD00F4DA84208D049
:102040000E4DA84205D00E4DA84202D00D4DA8421B
:1020500007D123F4807323F400734D692B438D69FA
:102060002B43436084614D684563026230BD0000CC
:102070008FFFFEFF002C0140003401400040014072
:10208000004401400048014030B5056A25F01005C4
:102090000562026A43688469224D2C4024F440742E
:1020A0000D6844EA052422F020028D6842EA0512F8
:1020B0001D4DA84200D10FE01C4DA84200D10BE0FD
:1020C0001B4DA84200D100BF1A4DA84200D100BF4D
:1020D000194DA84207D106E022F08002CD6842EAFD
:1020E000051222F04002104DA8420BD00F4DA8421D
:1020F00008D00F4DA84205D00E4DA84202D00E4D7B
:10210000A84209D123F4806323F400634D6943EAB4
:1021100085038D6943EA8503436084614D68856367
:10212000026230BDFF8FFFFE002C014000340140F1
:1021300000400140004401400048014030B5056ABC
:1021400025F480750562026A4368C469224D2C40FB
:1021500024F003040D682C4322F400728D6842EAD7
:1021600005221E4DA84200D10FE01D4DA84200D10E
:102170000BE01C4DA84200D100BF1B4DA84200D16E
:1021800000BF1A4DA84207D106E022F40062CD68D4
:1021900042EA052222F48062104DA8420BD0104D75
:1021A000A84208D00F4DA84205D00F4DA84202D03A
:1021B0000E4DA84209D123F4805323F400534D69F6
:1021C00043EA05138D6943EA05134360C4614D6812
:1021D000C563026230BD00008FFFFEFF002C01408E
:1021E00000340140004001400044014000480140EB
:1021F00030B5056A25F480550562026A4368C469F2
:10220000224D2C4024F440740D6844EA052422F445
:1022100000528D6842EA05321D4DA84200D10FE000
:102220001C4DA84200D10BE01B4DA84200D100BFBD
:102230001A4DA84200D100BF194DA84207D106E0AF
:1022400022F40042CD6842EA053222F48042104D69
:10225000A8420BD00F4DA84208D00F4DA84205D080
:102260000E4DA84202D00E4DA84209D123F480435E
:1022700023F400434D6943EA85138D6943EA8513CE
:102280004360C4614D680564026230BDFF8FFFFE8C
:10229000002C014000340140004001400044014056
:1022A0000048014030B5056A25F480350562026AB0
:1022B0004368046D114D2C400D682C4322F400320C
:1022C0000D8942EA05420E4DA8420BD00D4DA842A1
:1022D00008D00D4DA84205D00C4DA84202D00C4D9F
:1022E000A84204D123F480334D6943EA05234360B7
:1022F00004654D688564026230BD00008FFFFEFFFB
:10230000002C0140003401400040014000440140E5
:102310000048014030B5056A25F480150562026A5F
:102320004368046D114D2C400D6844EA052422F4E5
:1023300000120D8942EA05520D4DA8420BD00D4DF9
:10234000A84208D00C4DA84205D00C4DA84202D09E
:102350000B4DA84204D123F480234D6943EA852321
:10236000436004654D68C564026230BDFF8FFFFEA7
:10237000002C014000340140004001400044014075
:102380000048014030B50B461446026A056A25F044
:1023900001050562816921F0F00141EA041122F092
:1023A0000A021A438161026230BD30B50B46144601
:1023B000056A25F0100505628169026A21F4704101
:1023C00041EA043122F0A00242EA03128161026272
:1023D00030BD00BFFEE7000002480068C0F30220E5
:1023E000704700000CED00E010B5002804DB0A0780
:1023F000130E054A135406E00A07140E034A00F0B0
:102400000F031B1FD45410BD00E400E018ED00E0E2
:1024100002E008C8121F08C1002AFAD170477047AD
:10242000002001E001C1121F002AFBD17047FEF716
:102430003DF8FFF7E8FCFFF7AFFBFFF7F1FB00F01B
:102440000BF808E020214FF09040FEF70DF84FF414
:10245000FA70FDF709FFF5E710B500211148FFF705
:10246000F1FA04210F48FFF7EDFA08210D48FFF7B4
:10247000E9FA00210B48FEF7EBFE04210948FEF7BC
:10248000E7FE08210748FEF7E3FE40F23620054943
:102490000968486303490968886302490968C86391
:1024A00010BD00001000002000000000000000002F
:1024B00001020304060708090000000001020304EA
:1024C000E024000800000020100000001024000894
:1024D000F024000810000020500400002024000810
:1024E0000000000010000000010000000024F400C3
:04000005080001D915
:00000001FF
