:020000040800F2
:10000000E8050020F1010008954800085742000863
:1000100091480008D5080008955E0008000000001F
:1000200000000000000000000000000089490008F6
:10003000D9080008000000001D490008714E0008A2
:100040000B0200080B0200080B0200080B0200085C
:100050000B0200080B0200080B0200080B0200084C
:100060000B0200080B0200080B0200080B0200083C
:100070000B0200080B0200080B0200080B0200082C
:100080000B02000800000000310800080B02000805
:100090000B0200080B0200080B0200080B0200080C
:1000A000214F0008314F00080B0200080B02000826
:1000B0000B0200080B0200080B0200080B020008EC
:1000C0000B0200080B0200080B0200080B020008DC
:1000D0000B0200080B020008855E00080B020008F6
:1000E0000B0200080B0200080B0200080B020008BC
:1000F0000B0200080B0200080B02000800000000C1
:10010000000000000B020008000000000B020008C5
:100110000B020008000000000B0200080B020008A0
:100120000B0200080B0200080B0200080B0200087B
:100130000B02000800000000000000000B02000895
:100140000B0200080B020008000000000000000085
:10015000000000000000000000000000000000009F
:100160000000000000000000000000000B0200087A
:100170000B0200080000000000000000000000006A
:10018000000000000B02000800000000000000005A
:10019000000000000000000000000000000000005F
:1001A00000000000000000000B0200080B02000825
:1001B0000B0200080B0200080B0200080000000000
:1001C000000000000B02000800000000000000001A
:1001D0000B0200080B020008DFF810D000F06AFAEA
:1001E0000048004791690008AFF30080E80500204F
:1001F0000648804706480047FEE7FEE7FEE7FEE7C1
:10020000FEE7FEE7FEE7FEE7FEE7FEE7054F000834
:10021000D90100082DE9F05F0546002092469B4673
:1002200088460646814640241BE02846414647460C
:10023000224600F070F853465A46C01A914110D336
:1002400011461846224600F057F82D1A67EB0108B0
:100250004F4622460120002100F04EF817EB00091E
:100260004E41201EA4F10104DFDC484631462A46F7
:100270004346BDE8F09FD2B201E000F8012B491ED1
:10028000FBD270470022F6E710B513460A46044633
:100290001946FFF7F0FF204610BD00F0004230F095
:1002A00000400AD0C10D01F56071C0F3160042EAAA
:1002B0000151C208400711437047002001467047B2
:1002C00001F0004330B421F0004150EA010206D0B1
:1002D0000A0DA2F56072C1F31301002A02DC30BCE2
:1002E00000207047440F44EAC104C100E01830BC4C
:1002F00000EBC25000F01FB8202A04DB203A00FABD
:1003000002F1002070479140C2F1200320FA03F36C
:10031000194390407047202A04DB203A21FA02F06A
:100320000021704721FA02F3D040C2F1200291402F
:100330000843194670470029A8BF7047401C490070
:1003400008BF20F00100704710B4B0FA80FC00FA3A
:100350000CF050EA010404BF10BC704749B1CCF165
:10036000200421FA04F411FA0CF118BF01212143F1
:100370000843A3EB0C01CB1D4FEA00614FEA1020AC
:1003800042BF002010BC704700EBC350104400294E
:10039000A4BF10BC7047401C490008BF20F00100FA
:1003A00010BC70472DE9FE4F804681EA0300C00F64
:1003B0000C46009021F0004123F00045B8EB02000C
:1003C000A94105D24046214690461C460B460246AE
:1003D00023F00040104347D0270DC7F30A00C3F3B2
:1003E0000A510290401A019040286BDAC3F31300BF
:1003F00040F4801B0098924620B10023D2EB030A00
:1004000063EB0B0B01985946C0F140025046FFF7D1
:1004100073FF06460D4650465946019A00F05CF9B6
:1004200010EB08006141002487EA115284EAE77367
:100430001A4340D0009A62B3019A012A4FEA075248
:1004400015DC001B61EB02014FF0004202EA07528B
:10045000CDE90042001C41F5801132462B4600F0E8
:100460005CF903B0BDE8F08F40462146F9E7001B78
:1004700061EB0201001C41F5801300185B4120185C
:10048000A2F5001747EB030140EAD570B6196D419C
:1004900011E06D084FEA360645EAC0754FEA07528B
:1004A000001B61EB0201001C41F5801149084FEA75
:1004B00030000019514132462B4603B0BDE8F04FE1
:1004C00000F01CB90098012240000023D0EB02028A
:1004D00063EBE073009821464FEAE074B8EB00004C
:1004E00061EB0401E9E783F000435BE781F0004141
:1004F00058E72DE9FE4F81EA030404F0004421F09F
:10050000004100944FF0000B23F0004350EA010437
:100510005ED052EA03045BD0C3F30A54C1F30A5518
:100520002C44A4F2F3340194A0FB0254C1F3130150
:1005300041F48011C3F3130343F4801301FB02441D
:1005400000FB034E840A970A44EA815447EA835722
:10055000A4FB076802958D0A05FB07854FEA932CDB
:1005600004FB0C542705029D4FEA065847EA16374C
:10057000B5EB08056EEB070C870E920E47EA811764
:1005800042EA8312A7FB0201B6EB0B0164EB000405
:100590002B0D43EA0C335E1844EB1C50DA465146EF
:1005A000E7FB0201C5F313044FEA0B3343EA14538C
:1005B0004FEA0432019C43EA0603A4F10C040294BE
:1005C000009CCDE900B400F0A8F803B0BDE8F08FBE
:1005D00000200146F9E72DE9F04D81EA030404F01B
:1005E000004B21F0004514464FF0000A23F0004173
:1005F00050EA050220D054EA01021DD0C5F30A5783
:100600000246C5F31303C1F31300C1F30A5640F4C5
:10061000801543F48013A7EB0608101BD64608F29A
:10062000FD3873EB050002D308F1010801E09218D0
:100630005B41B8F1000F03DA00200146BDE8F08D00
:1006400000204FF48011064684460EE0171B73EB22
:10065000050705D3121B63EB050306434CEA010CA7
:1006600049084FEA300092185B4150EA0107EDD18A
:1006700052EA030012D082EA040083EA050108432B
:1006800005D0101BAB4106D20122002306E0002258
:100690004FF0004302E06FF0010253101AEB060026
:1006A0004CEB085110EB0A0041EB0B01BDE8F04D9B
:1006B00000F024B8064C074D06E0E06840F0010366
:1006C00094E8070098471034AC42F6D3FFF788FD52
:1006D000A86C0008C86C0008202A06DBCB17203A5B
:1006E00041FA02F043EAE07306E041FA02F3D04037
:1006F000C2F12002914008431946704710B5141EFC
:1007000073F1000408DA401C41F1000192185B41CA
:100710001A4301D120F0010010BD2DE9F04D9246A1
:100720009B4611B1B1FA81F202E0B0FA80F22032B8
:100730009046FFF7E1FD04460F4640EA0A0041EA11
:100740000B0153465A46084313D0114653EA0100A1
:1007500019D0C8F140025046FFF7DDFD05460E46B0
:10076000504659464246FFF7C7FD084305D00120D1
:1007700004E020463946BDE8F08D0020054346EAF6
:10078000E0762C4337430A986305E40AA0EB08009F
:100790000022FD0A44EA47540A3002D500200146EF
:1007A000E9E7010510196941DDE9084500196941CA
:1007B000BDE8F04DA2E70EB5C10F80EAE070084435
:1007C000CA07002140F233438DE80E000A460B466B
:1007D000FFF7A3FF03B000BD0EB540F23341029115
:1007E0000021CDE900110A460B46FFF796FF03B042
:1007F00000BD70B5C1F30A5201F000450024C1F3F9
:10080000130140F2FF3341F480119A4201DA0020D3
:1008100070BD40F233439A42A2F2334203DC5242AB
:10082000FFF779FD00E090402C43F1D0404270BDCD
:1008300010B5074800F022FF064800F01FFF4FF4F4
:100840008061054801F0BEFB06F020F910BD0000F4
:1008500024000020900000200008004870B50446E5
:10086000206803F033FD88BB206880681849084081
:1008700048B1E06D40F01000E065206E40F00100EE
:100880002066012070BD206803F0E8FC01F0AAFB9F
:10089000054615E0206803F019FD10B9206803F043
:1008A000DDFC01F09FFB401B022809D9E06D40F000
:1008B0001000E065206E40F0010020660120E1E7B5
:1008C0002068006800F001000028E3D00020D9E78C
:1008D0003F00008000BFFEE7704772B600BFFEE732
:1008E00010B503F0D9FF10BD704700002DE9FC5F83
:1008F00005460C460020019000900027686900B171
:1009000000BFFE49E068884200D000E000BF00BFA1
:1009100095F85800012802D10220BDE8FC9F012073
:1009200085F8580000BF686910B1206A01281ED1FF
:10093000606809284ED1A06A60B194F8280000F0E0
:100940007C002168C1F3846140EA4120E16A40EA09
:10095000010703E02068C0F3846047022868C06C88
:10096000E749084038432968C8646F6632E0A86EDA
:1009700090B9216AA96600206866A06A50B1206A11
:10098000401E94F8281001F07C010843E16A40EA17
:10099000010701E0206A471E207900F01F010020B6
:1009A000884087432068C0F38460217901F01F01EB
:1009B00088400743A86E401EA866686E3843686684
:1009C000A86E38B92868C06CCD490840696E0843E4
:1009D0002968C864286803F06AFCD8B994F825002F
:1009E00070B994F82600400594F8241040EA0150AC
:1009F0002968C96821F4401108432968C86009E0E2
:100A00002868C06820F4401094F8261040EA41504D
:100A10002968C860286803F06DFC8246286803F0E6
:100A200046FC8146BAF1000F7ED1B9F1000FFBD12F
:100A3000A06A08B1E06A88B994F82500012806D1B7
:100A40002868C06840F000702968C86017E028680E
:100A5000C06820F000702968C86010E094F8250094
:100A6000012806D1E86D40F02000E86501200190E2
:100A700005E02868C06820F000702968C86094F814
:100A8000300001280CD1606B40F00200A16B0843DC
:100A90002968096921F4FF7108432968086105E0A4
:100AA0002868006920F0020029680861A068B0F198
:100AB000004F0AD121680022286803F03DFC4FF066
:100AC0000041286803F074FC08E0A26821682868E7
:100AD00003F032FC0021286803F06AFC6069296891
:100AE000C968C1F3C101490000FA01F8206904286E
:100AF00040D028682268216900F1600C0CEB81036A
:100B0000D3F800C0DFF8FCB10CEA0B0C02F0F84B94
:100B10004BF0004B4BEA080B4CEA0B0CC3F800C03F
:100B200000BF2868A26900E0CCE0216900F1600CF8
:100B30000CEB8103D3F800C02CF0807C4CEA020C53
:100B4000C3F800C000BF2868227F2169012A01D1B3
:100B5000520600E00022134600F1600C0CEB81020B
:100B6000D2F800C02CF0007C4CEA030CC2F800C0A4
:100B700000BFA7E00021286803F086FBC0F3120045
:100B800030B90021286803F07FFBC0F3846007E0E0
:100B90000021286803F078FB90FAA0F0B0FA80F00A
:100BA0002168C1F3120119B92168C1F3846104E01D
:100BB000216891FAA1F1B1FA81F1884204D10022B1
:100BC0001146286803F0E3FB0121286803F05CFB71
:100BD000C0F3120030B90121286803F055FBC0F3BF
:100BE000846007E00121286803F04EFB90FAA0F032
:100BF000B0FA80F02168C1F3120119B92168C1F37C
:100C0000846104E0216891FAA1F1B1FA81F188428E
:100C100004D100220121286803F0B9FB02212868D1
:100C200003F032FBC0F3120030B90221286803F050
:100C30002BFBC0F3846007E00221286803F024FB4B
:100C400090FAA0F0B0FA80F02168C1F3120119B94E
:100C50002168C1F3846104E0216891FAA1F1B1FA3D
:100C600081F1884204D100220221286803F08FFB21
:100C70000321286803F008FBC0F3120030B90321F8
:100C8000286803F001FBC0F3846007E003212868B3
:100C900003F0FAFA90FAA0F0B0FA80F02168C1F3FC
:100CA000120119B92168C1F3846104E0216891FA45
:100CB000A1F1B1FA81F1884204D100220321286810
:100CC00003F065FB286803F006FB002873D1286851
:100CD000E2682168D0F8B030C1F3120C23EA0C03AB
:100CE00002F0180BDFF820C02CFA0BFC0CEA010C08
:100CF00043EA0C03C0F8B03000BF07E000007F40BB
:100D00000040100400F0FF03FFFF07007849E0688F
:100D1000884250D12368C3F312031BB92368C3F37D
:100D2000846304E0236893FAA3F3B3FA83F35B1CB0
:100D300003F01F03092B3FD82368C3F312031BB929
:100D40002368C3F3846304E0236893FAA3F3B3FA3C
:100D500083F35B1C03F01F034FF0010C0CFA03FC40
:100D60002368C3F312031BB92368C3F3846304E04D
:100D7000236893FAA3F3B3FA83F35B1C03F01F0316
:100D80004CEA836C2368C3F312031BB92368C3F3D3
:100D9000846304E0236893FAA3F3B3FA83F35B1C40
:100DA00003F01F0303EB43034FF0000B4BEA035325
:100DB0004CEA03033FE043E02368C3F312031BB98B
:100DC0002368C3F3846304E0236893FAA3F3B3FABC
:100DD00083F35B1C03F01F034FF0010C0CFA03FCC0
:100DE0002368C3F312031BB92368C3F3846304E0CD
:100DF000236893FAA3F3B3FA83F35B1C03F01F0396
:100E00004CEA836C2368C3F312031BB92368C3F352
:100E1000846304E0236893FAA3F3B3FA83F35B1CBF
:100E200003F01F030A3B03EB43034FF0007B4BEA45
:100E300003534CEA03031946A268286803F07CFABE
:100E40002C492068084048B300BF2B48806800F058
:100E5000E07600BF29492068884203D028492068ED
:100E600088421CD106F40000C8B92868B0F1A04F30
:100E700036D146F40001204803F078FA2148006892
:100E80002149B0FBF1F000EB40008000009002E04F
:100E90000098401E009000980028F9D120E01B49DE
:100EA000206888420CD106F0807048B9184928683B
:100EB000884215D046F080710F4803F057FA0FE0D2
:100EC0001449206888420BD106F4800040B91049CB
:100ED0002868884204D046F48001074803F046FAA7
:100EE00000BF002085F8580000BF019815E50000FC
:100EF00000007F400000088000030050000021C374
:100F00001000C0901C000020400D0300000052C7DC
:100F100000010050000084CB70470246092915D01B
:100F2000A1F20F136BB1B3F5837F06D0B3F5037F46
:100F30000BD11368D3F88C000CE01368D3F8880049
:100F400008E01368D3F8840004E000BF1368D3F806
:100F5000800000BF00BF7047704700002DE9F041DE
:100F6000044600BF3D48806800F01F000546206829
:100F700003F09DF910B10220BDE8F0812068C0683F
:100F800000F000472068C06C00F4C07030B92FB981
:100F9000E06D40F02000E0650120EDE700BF94F82F
:100FA0005800012801D10220E6E7012084F858000A
:100FB00000BF2046FFF752FC0646002E46D1E06DEA
:100FC00000F4807020B1206E20F00800206601E05F
:100FD00000202066E06D42F20101884340F4805019
:100FE000E0651F492068884202D14FF0A04000E030
:100FF00020682168884200D01DB9E06D20F480107F
:10100000E06560202168086000BF002084F8580077
:1010100000BF13492068884202D14FF0A04000E091
:1010200020682168884204D01DB1062D01D0072D0B
:1010300007D1206803F031F968B9206803F03CF962
:1010400009E0E06D40F48010E06504E000BF00209E
:1010500084F8580000BF30468EE7000000030050BF
:1010600000010050704770472DE9F0439BB00446E3
:101070000E464FF00008306800B100BF00BF94F882
:101080005800012803D102201BB0BDE8F0830120E5
:1010900084F8580000BF2068B0F1A04F02D1324858
:1010A000009001E000200090009850B9E06D40F001
:1010B0002000E06500BF002084F8580000BF012038
:1010C000E2E7009803F016F90746206803F012F9EA
:1010D000D8BBD7BB254D306800B394F83800716891
:1010E00041EA4030A96821F460410843A8604FF00C
:1010F000A04003F0F0F881461B4803F0ECF849EA01
:101100000009B9F1000F27D1B16830680843A96818
:1011100040F61F7291430843A8601DE0A86820F4C0
:101120006040A8604FF0A04003F0D5F881460E481B
:1011300003F0D1F849EA0009B9F1000F0CD1A86811
:1011400040F61F718843A86006E0FFE7E06D40F0BD
:101150002000E0654FF0010800BF002084F858002F
:1011600000BF404690E7000000010050000300501F
:101170002DE9F84F05460C464FF0000A002000907C
:10118000FE49E068884200D000E000BF00BF95F84B
:101190005800012802D10220BDE8F88F012085F80F
:1011A000580000BF286803F0A0F800287DD1296806
:1011B000D4E9002001F1300CC0F3012B0CEB8B03C0
:1011C000D3F800C000F01F0E4FF01F0B0BFA0EFB00
:1011D0002CEA0B0C00F01F0BC2F3846E0EFA0BFE10
:1011E0004CEA0E0CC3F800C000BF286803F07DF87D
:1011F0008146286803F056F88046B9F1000F64D1A3
:10120000B8F1000FFBD1A068B0F1004F0AD12168FE
:101210000022286803F07CF84FF00041286803F0B2
:10122000C1F808E0A2682168286803F071F800217D
:10123000286803F0B7F860692968C968C1F3C1017B
:10124000490000FA01F7206904283FD02868226885
:10125000216900F1600C0CEB8103D3F800C0DFF8CA
:1012600020B30CEA0B0C02F0F84B4BF0004B4BEAAE
:10127000070B4CEA0B0CC3F800C000BF2868A2693A
:10128000216900F1600C0CEB8103D3F800C02CF055
:10129000807C4CEA020CC3F800C000BF2868227FA3
:1012A0002169012A02D1520601E0C5E1002213465C
:1012B00000F1600C0CEB8102D2F800C02CF0007C35
:1012C0004CEA030CC2F800C000BFA7E00021286868
:1012D00002F0D1FFC0F3120030B90021286802F0FB
:1012E000CAFFC0F3846007E00021286802F0C3FF52
:1012F00090FAA0F0B0FA80F02168C1F3120119B998
:101300002168C1F3846104E0216891FAA1F1B1FA86
:1013100081F1884204D100221146286803F02CF89C
:101320000121286802F0A7FFC0F3120030B90121A3
:10133000286802F0A0FFC0F3846007E0012128685C
:1013400002F099FF90FAA0F0B0FA80F02168C1F3A2
:10135000120119B92168C1F3846104E0216891FA8E
:10136000A1F1B1FA81F1884204D10022012128685B
:1013700003F002F80221286802F07DFFC0F312009A
:1013800030B90221286802F076FFC0F3846007E0DC
:101390000221286802F06FFF90FAA0F0B0FA80F006
:1013A0002168C1F3120119B92168C1F3846104E015
:1013B000216891FAA1F1B1FA81F1884204D10022A9
:1013C0000221286802F0D8FF0321286802F053FFA9
:1013D000C0F3120030B90321286802F04CFFC0F3BB
:1013E000846007E00321286802F045FF90FAA0F02E
:1013F000B0FA80F02168C1F3120119B92168C1F374
:10140000846104E0216891FAA1F1B1FA81F1884286
:1014100004D100220321286802F0AEFF286802F000
:1014200055FF002872D12868E2682168D0F8B030F2
:10143000C1F3120C23EA0C0302F0180BDFF844C1CD
:101440002CFA0BFC0CEA010C43EA0C03C0F8B03098
:1014500000BF4A49E068884258D12368C3F31203A9
:101460001BB92368C3F3846304E0236893FAA3F3EE
:10147000B3FA83F35B1C03F01F03092B3ED82368E8
:10148000C3F312031BB92368C3F3846304E0236826
:1014900093FAA3F3B3FA83F35B1C03F01F034FF03B
:1014A000010C0CFA03FC2368C3F312031BB9236875
:1014B000C3F3846304E0236893FAA3F3B3FA83F3DA
:1014C0005B1C03F01F034CEA836C2368C3F3120315
:1014D0001BB92368C3F3846304E0236893FAA3F37E
:1014E000B3FA83F35B1C03F01F0303EB43034FF0DA
:1014F000000B4BEA03534CEA030347E02368C3F3B2
:10150000120323B92368C3F3846305E043E023682F
:1015100093FAA3F3B3FA83F35B1C03F01F034FF0BA
:10152000010C0CFA03FC2368C3F312031BB92368F4
:10153000C3F3846304E0236893FAA3F3B3FA83F359
:101540005B1C03F01F034CEA836C2368C3F3120394
:101550001BB92368C3F3846304E0236893FAA3F3FD
:10156000B3FA83F35B1C03F01F030A3B03EB430353
:101570004FF0007B4BEA035306E0000000007F4081
:1015800000F0FF03FFFF07004CEA03031946A268BF
:10159000286802F0BDFE2F492068084048B300BF0C
:1015A0002D48806800F0E07600BF2C492068884212
:1015B00003D02B49206888421CD106F40000C8B92A
:1015C0002868B0F1A04F3DD146F40001224802F056
:1015D000C7FE244800682449B0FBF1F000EB40004E
:1015E0008000009002E00098401E009000980028C3
:1015F000F9D127E01D49206888420CD106F080709F
:1016000048B91B49286888421CD046F080711248AE
:1016100002F0A6FE16E017492068884212D106F4AF
:10162000800078B91249286888420BD046F48001BE
:10163000094802F095FE05E0E86D40F02000E865FD
:101640004FF0010A00BF002085F8580000BF504647
:10165000A2E500000000088000030050000021C344
:101660001000C0901C000020400D0300000052C775
:1016700000010050000084CB704770472DE9F84FFF
:101680000446002000902068056820684668C54828
:1016900002F0ECFD074605F00200022811D106F029
:1016A000020002280DD1E06D00F0100018B9E06DC5
:1016B00040F40060E0652046FFF716F9022021683B
:1016C000086005F00400042803D106F00400042893
:1016D00007D005F0080008285FD106F008000828A8
:1016E0005BD1E06D00F0100018B9E06D40F40070BF
:1016F000E065206802F003FE002848D0AA4920686F
:10170000884202D14FF0A04000E020682168884262
:1017100004D01FB1052F01D0092F03D12068D0F8C4
:101720000C800AE0A0492068884202D14FF0A04016
:1017300000E020688346DBF80C8008F40050B0F528
:10174000005F24D02068006800F0080008281ED13F
:10175000206802F0CAFD90B92068406820F00C00B3
:1017600021684860E06D20F48070E065E06D00F471
:10177000805060B9E06D40F00100E06507E0E06D89
:1017800040F01000E065206E40F001002066204629
:10179000FFF772FF0C202168086005F02000202868
:1017A00003D106F02000202807D005F04000402893
:1017B00072D106F0400040286ED1E06D00F01000BC
:1017C00018B9E06D40F40050E0652068C16C01F488
:1017D000C07109B9012100E000218A4600BF2068DC
:1017E00002F08DFD814670492068884202D14FF099
:1017F000A04000E020682168884204D01FB1062F75
:1018000001D0072F03D12068D0F80C800AE0664988
:101810002068884202D14FF0A04000E02068834653
:10182000DBF80C80BAF1000F08D108F0007020BB83
:10183000B9F1000F2AD008F40050F0B92068006810
:1018400000F04000402821D108F40010A8B9206819
:1018500002F028FD90B92068406820F060002168FF
:101860004860E06D20F48050E065E06D00F4807029
:1018700018B9E06D40F00100E06507E0E06D40F070
:101880001000E065206E40F0010020662046FFF762
:1018900043FB60202168086005F0800080280DD19E
:1018A00006F08000802809D1E06D40F48030E065CA
:1018B000204600F0ADF980202168086005F48070B2
:1018C000B0F5807F0FD106F48070B0F5807F0AD12B
:1018D000E06D40F40030E0652046FFF7C3FB4FF4B5
:1018E00080702168086005F40070B0F5007F0FD1AA
:1018F00006F40070B0F5007F0AD1E06D40F480205E
:10190000E0652046FFF7AFFB4FF4007021680860E8
:1019100005F0100010282AD106F01000102826D15A
:10192000E06B10B90120009010E047B100BF1D48E6
:10193000806800F4604048B10120009006E0206813
:10194000C06800F0010008B1012000900098012853
:101950000AD1E06D40F48060E065206E40F0020046
:1019600020662046FFF789FE10202168086005F4F4
:101970008060B0F5806F13D106F48060B0F5806FA1
:101980000ED1E06D40F48040E065206E40F008002C
:1019900020664FF48060216808602046FFF7DCFA7B
:1019A000BDE8F88F00030050000100502DE9F84F0A
:1019B00004464FF000090020009014B90120BDE852
:1019C000F88F606920B194F82400012800D100BF8D
:1019D000E06D30B9204600F01DF90020206684F843
:1019E000580020688168C1F3407131B12068816876
:1019F000804A1140816000BF00BF206802F070FC87
:101A0000A0B9206881687C4A114041F08051816012
:101A100000BF7A4800687A49B0FBF1F0009002E01C
:101A20000098401E009000980028F9D1206802F02C
:101A300057FC48B9E06D40F01000E065206E40F0C2
:101A4000010020664FF00109206802F04EFC0646B6
:101A5000E06D00F0100000287CD1002EFCD1E06D7C
:101A600020F4807040F00200E065206802F02EFC57
:101A7000B0B94FF0A04002F029FC8246614802F064
:101A800025FC4AEA000ABAF1000F09D160685E49F4
:101A9000896821F47C1101435B4A916000BF00BF5B
:101AA000607FE16B41EA4030E1680843A168084388
:101AB00094F8241040EA014594F82400012803D149
:101AC000208D401E45EA4045E06A28B1A08D00F413
:101AD0007870216B084305432068C0684B49084073
:101AE00028432168C8602068006920F04060616B6D
:101AF000084321680861206802F0F7FB80462068EF
:101B000002F0D0FB0746B8F1000F50D1F7BB207FA1
:101B1000002141EA803194F8380041EA400520680C
:101B2000C06844F20201884328432168C8602069E4
:101B300088B12068006940F480302168086120681D
:101B4000D0F8C0006FF30D00216908432168C1F887
:101B5000C0000EE045E02068006920F48030216874
:101B600008612068D0F8C0006FF30D002168C1F84B
:101B7000C00094F84000012813D1606C40F00101CE
:101B8000A06C0843E16C0843216D00E00FE00843BE
:101B90002168096940F2FC72914308432168086199
:101BA00005E02068006920F0010021680861606993
:101BB000012809D12068006B20F00F00216A491E1E
:101BC00008432168086305E02068006B20F00F00DF
:101BD00021680863E06D20F0020040F00100E0653C
:101BE00005E0E06D40F01000E0654FF00109484667
:101BF000E5E60000C0FFFF5FC0FFFF7F1C00002084
:101C0000400D030000010050000300500740F0FFAA
:101C10007047000010B586B00446142101A8FEF7F5
:101C200031FB2068B0F1A04F4FD147480068401CFD
:101C3000454908600846006801280DD100BF4348A7
:101C4000C06C40F400504149C8640846C06C00F4C0
:101C50000050009000BF00BF00BF3C48C06C40F087
:101C600001003A49C8640846C06C00F001000090C9
:101C700000BF00BF00BF0846C06C40F00200C8644F
:101C80000846C06C00F00200009000BF00BF0320B7
:101C9000019002900020039001A94FF0904000F0C5
:101CA000A5F84FF4006001900320029000200390FB
:101CB00001A9274800F09AF800220221122000F022
:101CC00017FA122000F000FA3BE02249206888420F
:101CD00037D11D480068401C1B4908600846006851
:101CE00001280DD100BF1948C06C40F400501749BD
:101CF000C8640846C06C00F40050009000BF00BFEC
:101D000000BF1248C06C40F001001049C86408468A
:101D1000C06C00F00100009000BF00BF8020019067
:101D2000032002900020039001A94FF0904000F0A2
:101D30005DF800220221122000F0DAF9122000F0F2
:101D4000C3F906B010BD00000800002000100240DA
:101D5000000400480001005070B50446002594F8C6
:101D6000250002280BD00420E063012084F8250020
:101D700000BF002084F8240000BF012534E0206863
:101D8000006820F00E00216808602068006820F0DC
:101D9000010021680860A06C006820F48070A16CCC
:101DA000086094F8440000F01F0101208840216C75
:101DB0004860D4E913104860606D40B1606D006800
:101DC00020F48070616D0860D4E91610486001202D
:101DD00084F8250000BF002084F8240000BFA06B19
:101DE00010B12046A16B8847284670BD78B50346E0
:101DF0000022D0E0012696400D6805EA0604002C7A
:101E000072D04D68012D08D04D68022D05D04D6867
:101E1000112D02D04D68122D13D19868560003255C
:101E2000B540A8435600CD68B5402843986058682F
:101E300001259540A8430D79C5F300159540284329
:101E40005860D86856000325B540A84356008D68F1
:101E5000B5402843D8604D68022D02D04D68122D40
:101E600013D1D60803F1200555F826005507EE0ECC
:101E70000F25B540A8435607F60E0D69B540284317
:101E8000D60803F1200545F82600186856000325FA
:101E9000B540A8430D7905F003055600B540284329
:101EA00018604D6805F08055B5F1805F72D100BFB4
:101EB0003C4D2D6E45F001053A4E356635462D6E8A
:101EC00005F00105009500BF00BF4FEAB635960842
:101ED00055F8260095072E0F0F25B540A843B3F1FE
:101EE000904F02D100251AE054E02F4DAB4201D1B2
:101EF000012514E02D4DAB4201D102250FE02C4D00
:101F0000AB4201D103250AE02A4DAB4201D10425A1
:101F100005E0294DAB4201D1052500E006259607D5
:101F2000360FB5402843254D960845F82600244D28
:101F30002868A0434D6805F48035B5F5803F00D191
:101F400020431F4D28602D1D2868A0434D6805F4CF
:101F50000035B5F5003F00D12043194D2D1D2860F7
:101F60002D1D2868A0434D6805F48015B5F5801F28
:101F700000D12043124D083528602D1D2868A0434C
:101F80004D6805F40015B5F5001F00D120430C4D38
:101F90000C352860521C0D68D540002D7FF42AAF07
:101FA00078BD00000010024000040048000800480E
:101FB000000C0048001000480014004808000140D0
:101FC0000004014010B5426921EA020302EA01045B
:101FD00043EA0443836110BD0AB1816100E081627C
:101FE00070470000014800687047000010000020A2
:101FF00003480068034909680844014908607047BC
:10200000100000201800002010B50024032000F06C
:10201000ADF8002000F008F808B1012401E000F05C
:102020002FF8204610BD000070B504460025114869
:102030000068D8B10F4800684FF47A71B1FBF0F036
:102040000D490968B1FBF0F6304600F02DFF58B994
:10205000102C07D200222146501E00F049F80748F4
:10206000046004E0012502E0012500E00125284686
:1020700070BD0000180000201C000020140000208B
:1020800008B500BF0F48006E40F001000D4908661A
:102090000846006E00F00100009000BF00BF00BFC6
:1020A0000846806D40F0805088650846806D00F0DD
:1020B0008050009000BF00BF042000F057F800F0EF
:1020C000F5F808BD001002400146084600280DDB67
:1020D00000BF00BF00F01F0301229A4043099B008C
:1020E00003F1E023C3F8002100BF00BF00BF704729
:1020F0002DE9F05F80460D46164603F0E5FE0746E3
:1021000039462A46334601F00700C0F1070ABAF102
:10211000040F02D94FF0040A01E0C0F1070AD146CA
:1021200000F1040ABAF1070F02D24FF0000A01E0F1
:10213000A0F1030AD4464FF0010A0AFA09FAAAF1FB
:10214000010A0AEA020A0AFA0CFA4FF0010B0BFA2A
:102150000CFBABF1010B0BEA030B4AEA0B04214623
:10216000404603F0B9FEBDE8F09F000000BF00F05C
:102170000702064B19684FF6FF031940044B0B4347
:1021800043EA0221014B196000BF70470CED00E0EB
:102190000000FA0502468ABB4148006800F4C060AE
:1021A000B0F5806F2BD13E488030006820F48070FD
:1021B0003B4BC3F880001846006820F4C06040F430
:1021C000007018603748006832235843364BB0FB24
:1021D000F3F0411C00E0491E3148406900F4806082
:1021E000B0F5806F01D10029F5D12D48406900F488
:1021F0008060B0F5806F51D10320704708E0284817
:102200008030006820F48070254BC3F8800045E0E2
:10221000B2F5007F3AD12248006800F4C060B0F502
:10222000806F2AD11E488030006840F480701C4BBB
:10223000C3F880001846006820F4C06040F40070C5
:1022400018601848006832235843174BB0FBF3F06E
:10225000411C00E0491E1248406900F48060B0F55E
:10226000806F01D10029F5D10D48406900F48060EC
:10227000B0F5806F12D10320BFE7094880300068B5
:1022800040F48070064BC3F8800007E00448006803
:1022900020F4C06040F48060014B18600020ACE77F
:1022A000007000401C00002040420F00034880687E
:1022B00040F4804001498860704700000070004091
:1022C0002DE9F84304460027B846206800F40020B2
:1022D000B0F5002F73D1B946D348806D00F080501F
:1022E00078B900BFD048806D40F08050CE498865F5
:1022F0000846806D00F08050009000BF00BF4FF096
:102300000109CA48006840F48070C8490860FFF7B6
:1023100069FE064606E0FFF765FE801B022801D92C
:10232000032705E0C148006800F480700028F2D05F
:1023300000BF002F46D1BC489030006800F44075C3
:10234000CDB1206CA84216D0B7489030006820F478
:102350004075B548D0F8900040F48030B249C1F8DB
:1023600090000846D0F8900020F48030C1F890002A
:102370000846C0F8905005F00100A0B1FFF732FE0A
:10238000064608E0FFF72EFE801B41F288318842A6
:1023900001D9032706E0A4489030006800F002004D
:1023A0000028EFD000BF5FB99F489030006820F44C
:1023B0004070216C08439C49C1F8900003E00CE098
:1023C000B84600E0B846B9F1010F05D19648806DD6
:1023D00020F080509449886500BF207800F001000B
:1023E00048B191488830006820F0030061680843D4
:1023F0008D49C1F88800207800F00200022809D138
:1024000089488830006820F00C00A168084386499C
:10241000C1F88800207800F00400042809D182481F
:102420008830006820F03000E16808437E49C1F838
:102430008800207800F00800082809D17A48883000
:10244000006820F0C000216908437749C1F888007E
:10245000207800F02000202809D1734888300068D7
:1024600020F44060616908436F49C1F88800207812
:1024700000F04000402809D16B488830006820F403
:102480004050A16908436849C1F88800207800F0ED
:102490008000802809D164488830006820F44040DA
:1024A000E16908436049C1F88800208800F4807021
:1024B000B0F5807F09D15C488830006820F4403056
:1024C000216A08435849C1F88800208800F4007048
:1024D000B0F5007F09D154488830006820F44020CE
:1024E000616A08435049C1F88800208800F4806080
:1024F000B0F5806F13D14C488830006820F440104C
:10250000A16A0843484988310860A06AB0F5801F75
:1025100005D14548C06840F480104349C860208810
:1025200000F40060B0F5006F13D13F4888300068B8
:1025300020F44000E16A08433B4988310860E06AC2
:10254000B0F5800F05D13848C06840F48010364996
:10255000C860208800F48050B0F5805F13D1324805
:102560008830006820F04070216B08432E49883184
:102570000860206BB0F1807F05D12B48C06840F423
:1025800080102949C860208800F40050B0F5005F31
:1025900013D125488830006820F04060616B084303
:1025A000214988310860606BB0F1006F05D11E4889
:1025B000C06840F480101C49C860208800F4804046
:1025C000B0F5804F13D118488830006820F0406083
:1025D000A16B0843144988310860A06BB0F1006F0B
:1025E00005D11148C06840F480100F49C8602088A8
:1025F00000F40040B0F5004F13D10B48883000685C
:1026000020F04050E16B0843074988310860E06BD7
:10261000B0F1805F05D10448C06840F480300249C1
:10262000C8604046BDE8F8830010024000700040DA
:102630002DE9F04104460D464FF0000814B9012081
:10264000BDE8F0817D48006800F00F00A8420ED27E
:102650007A48006820F00F0028437849086008464F
:10266000006800F00F00A84201D00120E8E72078C0
:1026700000F00100002864D06068032823D170486E
:10268000006800F0007008B90120D9E702F048F9AD
:1026900006466C48864237D96948806800F0F000E9
:1026A00030B1207800F0020002282DD1A06858BB7C
:1026B0006348806820F0F00040F080006049886046
:1026C0004FF0800820E06068022806D15C4800686E
:1026D00000F4003040B90120B2E75948006800F426
:1026E000806008B90120ABE700F0DEF806465548E7
:1026F000864209D95248806820F0F00040F08000FE
:102700004F4988604FF080084D48806820F00300F2
:10271000616808434A498860FFF764FC074608E09F
:10272000FFF760FCC01B41F28831884201D90320C9
:1027300086E74348806800F00C006168B0EB810FC9
:10274000EED1207800F00200022820D1207800F09D
:102750000400042805D13A48806840F4E060384914
:102760008860207800F00800082807D13448806885
:1027700020F4605040F4E06031498860304880685F
:1027800020F0F000A16808432D49886008E0B8F106
:10279000800F05D12A48806820F0F0002849886021
:1027A0002648006800F00F00A84219D923480068A5
:1027B00020F00F00284321490860FFF713FC07466B
:1027C00008E0FFF70FFCC01B41F28831884201D9B5
:1027D000032035E71948006800F00F00A842F0D147
:1027E000207800F00400042807D11548806820F400
:1027F000E060E168084312498860207800F0080032
:10280000082808D10E48806820F46050216940EA09
:10281000C1000B49886000F047F809498968C1F395
:102820000311094A515C01F01F01C84007490860C3
:1028300007480068FFF7F8FB02E7000000200240AD
:102840000010024000B4C404706B00081C0000209B
:102850001400002001480068704700001C000020A0
:1028600000B5FFF7F7FF05498968C1F30221044A63
:10287000515C01F01F01C84000BD00000010024083
:10288000806B000800B5FFF7E5FF05498968C1F3D3
:10289000C221044A515C01F01F01C84000BD000084
:1028A00000100240806B000870B5224DAD6805F045
:1028B0000C05042D01D120483AE01E4DAD6805F00D
:1028C0000C05082D01D11D4832E01A4DAD6805F008
:1028D0000C050C2D2BD1174DED6805F00304154D9B
:1028E000ED68C5F303156A1C022C0CD0032C09D12A
:1028F000124DB5FBF2F50F4EF668C6F3062605FB42
:1029000006F10AE000BF0C4DB5FBF2F5094EF66882
:10291000C6F3062605FB06F100BF00BF054DED68B6
:10292000C5F341656D1C6B00B1FBF3F000E00020C6
:1029300070BD0000001002400024F40000366E015B
:102940002DE9F843044614B90120BDE8F883207846
:1029500000F00100002865D0FC48806800F00C07FA
:10296000FA48C06800F003060C2F01D1032E01D0F5
:10297000082F0AD1F548006800F40030002851D033
:10298000606800284ED10120DFE700BF6068B0F525
:10299000803F06D1ED48006840F48030EB49086084
:1029A0001AE06068B0F5A02F0BD1E848006840F449
:1029B0008020E64908600846006840F480300860DE
:1029C0000AE0E248006820F48030E04908600846E8
:1029D000006820F48020086000BF606888B1FFF7BD
:1029E00001FB054606E0FFF7FDFA401B642801D90C
:1029F0000320AAE7D548006800F400300028F2D090
:102A000010E0FFF7EFFA054606E0FFF7EBFA401B90
:102A1000642801D9032098E7CC48006800F400300E
:102A20000028F2D1207800F00200022860D1C748C7
:102A3000806800F00C07C548C06800F003060C2F42
:102A400001D1022E01D0042F18D1C048006800F433
:102A5000806018B1E06808B9012076E7BB4840689B
:102A600020F0FE40217C40EA0160B8494860B84847
:102A70000068FFF7D9FA18B3012066E7E06800B3F1
:102A8000B248006840F48070B0490860FFF7AAFAC5
:102A9000054606E0FFF7A6FA401B022801D90320ED
:102AA00053E7AA48006800F480600028F2D0A748E5
:102AB000406820F0FE40217C40EA0160A349486064
:102AC00016E0A248006820F48070A0490860FFF773
:102AD00089FA054606E0FFF785FA401B022801D96E
:102AE000032032E79948006800F480600028F2D1A2
:102AF000207800F00800082836D16069D0B19348EA
:102B00009430006840F001009049C1F89400FFF74C
:102B100069FA054606E0FFF765FA401B022801D96D
:102B2000032012E789489430006800F00200002872
:102B3000F1D019E085489430006820F00100834905
:102B4000C1F89400FFF74EFA054606E0FFF74AFA8F
:102B5000401B022801D90320F7E67C489430006826
:102B600000F002000028F1D1207800F004000428D1
:102B700072D14FF000087548806D012121EA107074
:102B800078B100BF7148806D40F080506F49886512
:102B90000846806D00F08050009000BF00BF4FF0ED
:102BA00001086C48006800F48070B0B9694800689A
:102BB00040F4807067490860FFF714FA054606E0A4
:102BC000FFF710FA401B022801D90320BDE6614837
:102BD000006800F480700028F2D000BFA0680128CF
:102BE00008D15A489030006840F001005749C1F8B8
:102BF000900021E0A06805280FD15448903000686B
:102C000040F004005149C1F890000846D0F8900007
:102C100040F00100C1F890000EE04C489030006890
:102C200020F001004949C1F890000846D0F8900012
:102C300020F00400C1F8900000BFA068A8B1FFF721
:102C4000D1F9054609E0FFF7CDF9401B41F2883183
:102C5000884202D9032078E625E03C48903000689D
:102C600000F002000028EED013E0FFF7BBF90546A4
:102C700008E0FFF7B7F9401B41F28831884201D9DB
:102C8000032062E631489030006800F0020000281E
:102C9000EFD1B8F1010F05D12C48806D20F08050A4
:102CA0002A49886500BF207800F02000202836D10E
:102CB000A069D0B125489830006840F00100234950
:102CC000C1F89800FFF78EF9054606E0FFF78AF98C
:102CD000401B022801D9032037E61C4898300068C1
:102CE00000F002000028F1D019E018489830006880
:102CF00020F001001549C1F89800FFF773F9054667
:102D000006E0FFF76FF9401B022801D903201CE6FB
:102D10000E489830006800F002000028F1D1E06908
:102D2000002860D00948806800F00C000C287FD093
:102D3000E069022858D10548006820F080700349F6
:102D40000860FFF74FF905460DE000000010024053
:102D50001400002000700040FFF744F9401B0228D7
:102D600001D90320F1E54D48006800F0007000280B
:102D7000F2D1D4E90810401E41EA0011A06A41EAEC
:102D80000021208E0122C2EB500041EA4051342044
:102D9000005DC2EB500041EA40612C20005D41EA39
:102DA000C0603E49C9683E4A114008433B49C8607B
:102DB0000846006840F0807008600846C06840F02F
:102DC0008070C860FFF70EF9054606E0FFF70AF9C4
:102DD000401B022801D90320B7E53048006800F005
:102DE00000700028F2D056E02C48006820F0807077
:102DF0002A4908600846C06820F00300C8600846F9
:102E0000C068284908402549C860FFF7EBF8054627
:102E100007E00DE0FFF7E6F8401B022801D9032088
:102E200093E51E48006800F000700028F2D132E0FF
:102E3000E069012800D188E51848C66806F003015A
:102E4000206A814225D106F0F001606A401EB1EB94
:102E5000001F1ED106F4FE41A06AB1EB002F18D16D
:102E600006F078412C20005DB1EBC06F11D106F463
:102E7000C001208E0122C2EB5000B1EB405F08D1AF
:102E800006F0C0613420005DC2EB5000B1EB406F32
:102E900001D0012059E5002057E500000010024054
:102EA0000C809F01FFFFEEFE70B504462546681EAC
:102EB000B0F1807F01D301200FE0681E4FF0E021C8
:102EC00048610F214FF0FF3003F006F800204FF06B
:102ED000E021886107200861002070BD70477047BD
:102EE0007047000010B50346002200BF93F83C0075
:102EF000012801D1022010BD012083F83C0000BF51
:102F000022F0FF00CC6840EA040222F440708C6892
:102F100040EA040222F480604C6840EA040222F491
:102F200000600C6840EA040222F480500C6940EA18
:102F3000040222F400504C6940EA040222F480406A
:102F40000C6B40EA040222F470200C8B40EA04422D
:102F50001C4C1868A04203D01B4C1868A04204D136
:102F600022F08050CC6940EA0402164C1868A04256
:102F700003D0154C1868A0421BD122F470000C8DB0
:102F800040EA045222F080700C6A40EA040222F007
:102F900000704C6A40EA04020A4C1868A04203D050
:102FA000094C1868A04204D122F00050CC6A40EAD3
:102FB00004021868426400BF002083F83C0000BF90
:102FC00000BF98E7002C014000340140F0B50446F2
:102FD0008C46174600BF94F83C00012801D102201E
:102FE000F0BD012084F83C0000BF3868042814D0EC
:102FF00004DC012807D002281ED109E0082811D0DE
:10300000102819D113E0012200255302092618E0E7
:103010000222012553020A2613E00422022553024C
:103020000B260EE00822032553020C2609E010228D
:10303000042553020D2604E000220023002500266B
:1030400000BF00BFBCF1010F03D0BCF1020F1ED1C5
:103050000EE02068016E91437868A840104001435B
:103060009943B868B04018400143206801660FE0FA
:103070002068416E91437868A8401040014399430D
:10308000B868B040184001432068416600E000BFC6
:1030900000BF00BF002084F83C0000BF00BF9FE7D6
:1030A000704701460868406D40F400300A6850657A
:1030B000002070477047704730B502460B4600BF8E
:1030C00092F83C00012801D1022030BD012082F895
:1030D0003C0000BF022082F83D0010684168106883
:1030E00084681D4D1068A84203D01C4D1068A8428A
:1030F00003D121F470015868014319480140186850
:10310000014310684160144D1068A84213D0106844
:10311000B0F1804F0FD0134D1068A8420BD0124D64
:103120001068A84207D00D4D1068A84203D00F4D7B
:103130001068A84205D124F0800498680443106800
:103140008460012082F83D0000BF002082F83C002E
:1031500000BF00BFB9E70000002C0140003401406F
:103160008FFFFFFD000400400008004000400140C8
:1031700070B504460D4615B994F844000BE0042DD3
:1031800002D14520005D06E0082D02D14620005DF9
:1031900001E04720005D012801D0012070BD1DB96C
:1031A000022084F844000EE0042D03D102214520C2
:1031B000015508E0082D03D102214620015502E007
:1031C00002214720015504222946206801F027FFEB
:1031D0002068406C40F40040216848641849206829
:1031E000884213D02068B0F1804F0FD01549206875
:1031F00088420BD014492068884207D013492068C0
:10320000884203D012492068884210D12068806823
:10321000104900EA0106062E0FD0B6F5803F0CD00B
:103220002068006840F001002168086005E020681F
:10323000006840F00100216808600020AEE700004F
:10324000002C014000040040000800400034014010
:103250000040014007000100704710B504460CB95A
:10326000012010BD94F83D0028B9002084F83C00EE
:10327000204600F029F8022084F83D00211D206836
:1032800001F05EFE012084F8480000BF84F83E0093
:1032900001213F2001554020015541200155422088
:1032A00001554320015500BF00BF012084F84400B0
:1032B00045200155462001554720015500BF0120FA
:1032C00084F83D000020CCE710B586B004461421F8
:1032D00001A8FCF7D7FF20492068884239D100BFF8
:1032E0001E48006E40F400601C4908660846006EE7
:1032F00000F40060009000BF00BF00BF0846C06C33
:1033000040F00100C8640846C06C00F00100009065
:1033100000BF00BFC814019012200290012003904A
:10332000002004900C20059001A94FF09040FEF77A
:103330005DFD002211461820FEF7DAFE1820FEF788
:10334000C3FE002201211920FEF7D2FE1920FEF74C
:10335000BBFE06B010BD0000002C01400010024072
:10336000014691F83D00012801D00120704702205C
:1033700081F83D00184B0868984213D00868B0F1F6
:10338000804F0FD0154B086898420BD0144B08683B
:10339000984207D0134B0868984203D0124B086834
:1033A000984210D108688068104B00EA0302062A90
:1033B0000FD0B2F5803F0CD00868006840F00100E3
:1033C0000B68186005E00868006840F001000B68B1
:1033D00018600020CAE70000002C014000040040F3
:1033E0000008004000340140004001400700010097
:1033F0002DE9F04104460D4600BF94F83C00012839
:1034000002D10220BDE8F081012084F83C0000BF19
:10341000022084F83D00206886683F48064026F474
:103420007F46206886602868702824D00CDC00F075
:103430000F01002964D10011072861D2DFE800F0F4
:103440005354555649353F00344A811A90424FD063
:1034500009DCB0F5805F0DD0B0F5005F18D0B0F199
:10346000101F4DD143E0102943D0202942D05029CC
:1034700046D140E045E0D5E902136A68206801F0D2
:10348000DFFD2068866846F077062068866038E0B1
:10349000D5E902136A68206801F0D2FD20688068CF
:1034A00040F48040216888602BE0EA686968206801
:1034B00001F0B2FF5021206801F0CEFD21E0EA6862
:1034C0006968206801F0BBFF6021206801F0C4FD3D
:1034D00017E0EA686968206801F09EFF40212068D3
:1034E00001F0BAFD0DE000BF00BF00BF00BF00BF8C
:1034F00000BF00BF00BF2968206801F0ADFD00E0FB
:1035000000BF00BF012084F83D0000BF002084F808
:103510003C0000BF00BF75E788FFCEFF2000100011
:10352000704710B5044620680069C0F34000D8B168
:103530002068C068C0F34000B0B16FF0020021689D
:103540000861012020772068806900F0030018B12D
:103550002046FFF7E5FF05E0204600F05DF9204634
:1035600000F047FA0020207720680069C0F380004F
:10357000D8B12068C068C0F38000B0B16FF004001B
:1035800021680861022020772068806900F440707B
:1035900018B12046FFF7C4FF05E0204600F03CF9D3
:1035A000204600F026FA0020207720680069C0F34A
:1035B000C000D8B12068C068C0F3C000B0B16FF0DF
:1035C000080021680861042020772068C06900F0A5
:1035D000030018B12046FFF7A3FF05E0204600F0E6
:1035E0001BF9204600F005FA0020207720680069CA
:1035F000C0F30010D8B12068C068C0F30010B0B1AB
:103600006FF0100021680861082020772068C069E9
:1036100000F4407018B12046FFF782FF05E0204615
:1036200000F0FAF8204600F0E4F900202077206846
:10363000006900F0010058B12068C06800F0010086
:1036400030B16FF0010021680861204600F078FA7F
:1036500020680069C0F3C01058B12068C068C0F38A
:10366000C01030B16FF08000216808612046FFF77C
:1036700036FC20680069C0F3002058B12068C0689B
:10368000C0F3C01030B16FF480702168086120462B
:10369000FFF724FC20680069C0F3801058B120684F
:1036A000C068C0F3801030B16FF04000216808613D
:1036B000204600F046FA20680069C0F3401058B177
:1036C0002068C068C0F3401030B16FF0200021685E
:1036D00008612046FFF704FC20680069C0F3005031
:1036E00058B12068C068C0F3005030B16FF480104A
:1036F000216808612046FFF7DDFC20680069C0F3FF
:10370000405058B12068C068C0F3405030B16FF4E9
:103710000010216808612046FFF7C2FC206800699C
:10372000C0F3805058B12068C068C0F3805030B1F9
:103730006FF48000216808612046FFF7BCFC206818
:103740000069C0F3C05058B12068C068C0F3C050D1
:1037500030B16FF40000216808612046FFF77CFD5E
:1037600010BD000010B586B00446142101A8FCF776
:1037700089FD26492068884245D100BF2448C06C95
:1037800040F002002249C8640846C06C00F0020004
:10379000009000BF00BF00BF0846C06C40F00100B1
:1037A000C8640846C06C00F00100009000BF00BF74
:1037B0004FF4C0400190022002900390002004903A
:1037C0000620059001A91348FEF710FB4FF40040B6
:1037D00001900220029003900020049004200590A4
:1037E00001A90C48FEF702FB4FF4E06001900220B3
:1037F00002900390002004900620059001A94FF04C
:103800009040FEF7F3FA06B010BD0000002C014016
:103810000010024000040048704770B504460D4691
:10382000164600BF94F83C00012801D1022070BD6B
:10383000012084F83C0000BF0C2E51D005DC4EB1B5
:10384000042E1ED0082E7AD133E0102E60D0142E14
:10385000F9D175E02946206801F00AFC20688069EA
:1038600040F00800216888612068806920F0040029
:103870002168886120688069296908432168886116
:1038800077E02946206801F049FC2068806940F40F
:103890000060216888612068806920F48060216868
:1038A000886120688069296940EA0120216888616F
:1038B0005FE02946206801F08BFC2068C06940F079
:1038C00008002168C8612068C06920F004002168F0
:1038D000C8612068C069296908432168C86148E057
:1038E0002946206801F0CEFC2068C06940F40060E1
:1038F0002168C8612068C06920F480602168C861BF
:103900002068C069296940EA01202168C86130E067
:103910002946206801F010FD2068006D40F0080085
:10392000216808652068006D20F0040021680865A2
:103930002068006D296908432168086519E017E0CF
:103940002946206801F030FD2068006D40F40060D9
:10395000216808652068006D20F480602168086592
:103960002068006D296940EA01202168086500E0AF
:1039700000BF00BF00BF002084F83C0000BF00BFB4
:1039800055E710B504460CB9012010BD94F83D0070
:1039900028B9002084F83C00204600F029F80220D5
:1039A00084F83D00211D206801F0CAFA012084F846
:1039B000480000BF84F83E0001213F20015540200F
:1039C000015541200155422001554320015500BFBA
:1039D00000BF012084F844004520015546200155D0
:1039E0004720015500BF012084F83D000020CCE7AE
:1039F0007047704770B504460D4615B994F83E00FF
:103A000015E0042D02D13F20005D10E0082D02D109
:103A10004020005D0BE00C2D02D14120005D06E04E
:103A2000102D02D14220005D01E04320005D0128FD
:103A300001D0012070BD1DB9022084F83E001AE0BB
:103A4000042D03D102213F20015514E0082D03D19C
:103A50000221402001550EE00C2D03D1022141200E
:103A6000015508E0102D03D102214220015502E04A
:103A700002214320015501222946206801F0BEFAA7
:103A80002749206888420FD02649206888420BD0F9
:103A900025492068884207D024492068884203D0FD
:103AA00023492068884201D1012000E0002028B18C
:103AB0002068406C40F40040216848641849206840
:103AC000884213D02068B0F1804F0FD01949206888
:103AD00088420BD018492068884207D011492068D5
:103AE000884203D010492068884210D1206880683D
:103AF000124900EA0106062E0FD0B6F5803F0CD021
:103B00002068006840F001002168086005E0206836
:103B1000006840F001002168086000208AE700008A
:103B2000002C0140003401400040014000440140AD
:103B30000048014000040040000800400700010068
:103B400070477047014600BF91F87C00012801D101
:103B500002207047012081F87C0000BF2420C1F8BA
:103B60008000086802680868006820F001000B689F
:103B7000186022F000520020486608680260202089
:103B8000C1F8800000BF002081F87C0000BF00BFAA
:103B9000DFE7704770B504460D4600BF94F87C001F
:103BA000012801D1022070BD012084F87C0000BFF3
:103BB0002420C4F88000206806682068006820F08F
:103BC0000100216808602068806820F06060284358
:103BD00021688860204601F047FC206806602020AC
:103BE000C4F8800000BF002084F87C0000BF00BF44
:103BF000D9E770B504460D4600BF94F87C00012853
:103C000001D1022070BD012084F87C0000BF242077
:103C1000C4F88000206806682068006820F0010071
:103C2000216808602068806820F06040284321688F
:103C30008860204601F018FC206806602020C4F847
:103C4000800000BF002084F87C0000BF00BFD9E7DF
:103C500070477047704700002DE9F0470446206820
:103C6000C569206806682068876840F60F0005EA85
:103C70000008B8F1000F0FD105F0200060B106F088
:103C8000200010B907F0805030B1E06E10B120462E
:103C9000E16E8847BDE8F087B8F1000F7ED06E482E
:103CA000384018B96D4830400028F7D005F00100C1
:103CB00058B106F4807040B1012021680862D4F840
:103CC000880040F00100C4F8880005F0020058B1F7
:103CD00007F0010040B1022021680862D4F8880092
:103CE00040F00400C4F8880005F0040058B107F063
:103CF000010040B1042021680862D4F8880040F037
:103D00000200C4F8880005F0080070B106F0200039
:103D100010B95148384040B1082021680862D4F8F1
:103D2000880040F00800C4F8880005F4006060B125
:103D300006F0806048B14FF4006021680862D4F852
:103D4000880040F02000C4F88800D4F888000028DB
:103D500044D005F0200050B106F0200010B907F063
:103D6000805020B1E06E10B12046E16E8847D4F853
:103D700088902068806800F04000402802D009F058
:103D8000280028B3204601F069FC2068806800F014
:103D90004000402818D12068806800E01FE020F033
:103DA000400021688860A06F50B12D48A16F8863E2
:103DB000A06FFDF7D1FF88B1A06F816B88470DE040
:103DC0002046FFF747FF09E02046FFF743FF05E0E5
:103DD0002046FFF73FFF0020C4F888005AE705F4AB
:103DE000801050B107F4800038B14FF48010216882
:103DF00008622046FFF72DFF4CE705F0800058B120
:103E000006F0800010B907F4000028B1206F10B14F
:103E10002046216F88473DE705F0400030B106F0AD
:103E2000400018B1204601F02DFC33E705F40000F6
:103E300030B106F0804018B12046FFF709FF29E7AE
:103E400005F0807030B106F0004018B12046FFF751
:103E5000A0FE1FE700BF1DE70100001020010004C5
:103E60004556000810B504460CB9012010BDA069E4
:103E700000B100E000BFD4F8800028B9002084F829
:103E80007C00204600F02AF82420C4F88000206836
:103E9000006820F0010021680860204601F026FD3E
:103EA000012800D1E2E7A06A10B1204601F014FB1E
:103EB0002068406820F4904021684860206880684D
:103EC00020F02A00216888602068006840F0010026
:103ED00021680860204601F07BFBC7E710B586B07B
:103EE0000446142101A8FCF7CDF91B49206888423B
:103EF00030D100BF1948806D40F400301749886503
:103F00000846806D00F40030009000BF00BF00BF85
:103F10000846C06C40F00100C8640846C06C00F060
:103F20000100009000BF00BF0C2001900220029011
:103F30000020039004900720059001A94FF09040C5
:103F4000FDF754FF002203212620FEF7D1F826209A
:103F5000FEF7BAF806B010BD004400400010024061
:103F600010B50346D3F88400202874D101B10AB9F2
:103F7000012010BD00BF93F87C00012801D1022070
:103F8000F7E7012083F87C0000BF9965A3F85C2067
:103F9000A3F85E200020D86600BF9868B0F5805F67
:103FA0000AD1186920B940F2FF10A3F8600020E0A0
:103FB000FF20A3F860001CE0986848B9186918B998
:103FC000FF20A3F8600014E07F20A3F8600010E059
:103FD0009868B0F1805F09D1186918B97F20A3F8FB
:103FE000600006E03F20A3F8600002E00020A3F894
:103FF000600000BF0020C3F888002220C3F88400BE
:104000001868806840F001001C68A060586EB0F12C
:10401000005F21D1B3F8680090421DDC9868B0F5CC
:10402000805F04D1186910B91848D86601E01848B3
:10403000D86600BF002083F87C0000BF18680068C5
:1040400040F480701C6820601868806840F08050E0
:104050001C68A06016E017E09868B0F5805F04D196
:10406000186910B90B48D86601E00B48D86600BF44
:10407000002083F87C0000BF1868006840F490704E
:104080001C682060002074E7022072E719570008BE
:1040900039580008A7560008CD57000810B5044647
:1040A0004FF6FF7301220549054800F00BF8012285
:1040B00002490348FFF754FF10BD0000D40100205F
:1040C000480100202DE9F84F04460E461746994650
:1040D000D4F8800020285ED106B117B90120BDE8D0
:1040E000F88F00BF94F87C00012801D10220F6E788
:1040F000012084F87C0000BF00205434606321203C
:10410000E062FDF76FFF824627806780543CA0681D
:10411000B0F5805F04D1206910B90025B04602E0F7
:1041200035464FF0000800BF002084F87C0000BF37
:104130001DE05346002280212046CDF8009001F07A
:1041400042FE08B10320CAE745B9B8F80000C0F341
:1041500008002168886208F1020803E028782168D5
:1041600088626D1CB4F85600401EA4F85600B4F8DE
:1041700056000028DDD15346002240212046CDF8CC
:10418000009001F020FE08B10320A8E72020C4F829
:1041900080000020A3E70220A1E7000010B503463D
:1041A000D3F8800020284BD101B10AB9012010BDFD
:1041B00000BF93F87C00012801D10220F7E701201D
:1041C00083F87C0000BF43F8501F9A80DA800020FB
:1041D00018629863212018635869503BB0F1005F62
:1041E00016D19868B0F5805F04D1186910B91548E8
:1041F000186701E01448186700BF002083F87C00AE
:1042000000BF1868806840F400001C68A06015E0DA
:104210009868B0F5805F04D1186910B90B48186729
:1042200001E00B48186700BF002083F87C0000BF46
:104230001868006840F080001C6820600020B6E725
:104240000220B4E7C75C00086B5D0008815C0008D1
:10425000295D0008704700BFFEE700008168024A40
:104260001140491C81607047C0FFFF7F014688688C
:1042700000F01F007047024602F1600000EB81036E
:10428000186800F0F8407047024602F1600000EB49
:104290008103186800F0F84070470146C86800F0D4
:1042A0000070704701468868C0F3C000704701463F
:1042B0008868C0F3C00070478168034A114041F02C
:1042C0000801816070470000C0FFFF7F01468868D9
:1042D00000F0010070470146886800F00100704757
:1042E00001468868C0F30070704701468868C0F3D3
:1042F0008000704701468868C0F38000704701461F
:10430000C86800F4406008B9012070470020FCE74D
:1043100070B500F11404C1F3406504EB85031C681B
:10432000C1F304560725B540AC43C1F3045502FA66
:1043300005F52C431C6070BD70B500F11404C1F389
:10434000406504EB85031C68C1F304560725B5409E
:10435000AC43C1F3045502FA05F52C431C6070BD53
:10436000826822F0E0720A4382607047826822F01D
:10437000E0720A438260704710B500F1600404EBFC
:1043800081031C6824F0004414431C6010BD10B568
:1043900000F1600404EB81031C6824F00044144322
:1043A0001C6010BD426922F000420A43426170471E
:1043B000426922F000420A434261704700B59BB057
:1043C0000020189019901A90202110A8FBF75AFF8E
:1043D0003C2101A8FBF756FF4FF0A0404A49086076
:1043E0004FF440304860002147488160C16001615E
:1043F000012141610421816100210177417703217D
:104400000162002180F824104FF4A461C1624FF4CE
:1044100080610163002180F83810C16380F840108A
:10442000FDF7C4FA08B1FCF758FA0020189018A953
:104430003548FCF719FE08B1FCF74FFA33481090E5
:1044400006201190042012907F20139004201490D5
:104450000020159010A92C48FCF78AFE08B1FCF743
:104460003CFA2B4810900C20119010A92648FCF71C
:104470007FFE08B1FCF731FA264810901220119007
:1044800010A92148FCF774FE08B1FCF726FA1F4872
:10449000019009200290012003907F2004900420C5
:1044A0000590002006900320099000208DF8280038
:1044B0008DF829008DF82A0084200B9080200C9024
:1044C00000208DF8340001A90F48FCF70FFA08B15D
:1044D000FCF703FA0E48019040F20F10029001A978
:1044E0000948FCF703FA08B1FCF7F7F9094801900D
:1044F00040F21520029001A90348FCF7F7F908B132
:10450000FCF7EBF91BB000BD24000020040060089C
:104510000040C03A0200300400B597B020210FA837
:10452000FBF7B0FE3C216846FBF7ACFE2F48304954
:1045300008604FF44030486000212D488160C16020
:1045400001614161042181610021017741770121ED
:104550000162002180F824104FF4A461C1624FF47D
:1045600080610163002180F83810C16380F8401039
:10457000FDF71CFA08B1FCF7B0F91E480F900620B1
:104580001090042011907F2012900420139000209E
:1045900014900FA91648FCF7EBFD08B1FCF79DF944
:1045A0001448009009200190012002907F20039080
:1045B00004200490002005900120089000208DF830
:1045C00024008DF825008DF8260084200A90802094
:1045D0000B9000208DF8300069460548FCF786F9FD
:1045E00008B1FCF77AF917B000BD000000010050D7
:1045F000900000201000C01000B587B0142102A860
:10460000FBF740FE00BF2D48C06C40F020002B4956
:10461000C8640846C06C00F02000019000BF00BFD5
:1046200000BF0846C06C40F00100C8640846C06C7A
:1046300000F00100019000BF00BF00BF0846C06C41
:1046400040F00200C8640846C06C00F0020001900F
:1046500000BF00BF00BF0846C06C40F00400C86443
:104660000846C06C00F00400019000BF00BF0122AA
:1046700020214FF09040FDF7AFFC00224FF4806105
:104680000F48FDF7A9FC2020029001200390049020
:104690000220059002A94FF09040FDF7A7FB4FF4D0
:1046A000806002900120039004900220059002A9EE
:1046B0000348FDF79BFB07B000BD0000001002405F
:1046C0000008004800B59FB000201B901C901D9072
:1046D0001E90189019901A901590169017901C2102
:1046E0000EA8FBF7CFFD342101A8FBF7CBFD4B480B
:1046F0004B4908600020486020214948816040F60D
:104700001131C16000210161416180218161FEF7A9
:10471000A4FD08B1FCF7E1F84FF480501B901BA9F1
:104720003F48FEF765FE08B1FCF7D7F83C48FFF7B5
:1047300028F908B1FCF7D1F87020189000201990E2
:104740001A9018A93648FEF7B7FC08B1FCF7C5F86F
:104750000120159016900020179015AA02213048CC
:10476000FEF734FC08B1FCF7B8F860200E9000208A
:104770000F9010901190129013904FF400701490BD
:1047800000220EA92648FFF748F808B1FCF7A5F863
:1047900000200F9004220EA92148FFF73EF808B12F
:1047A000FCF79BF800200F9008220EA91C48FFF789
:1047B00034F808B1FCF791F800200F901190149094
:1047C0000C220EA91648FFF728F808B1FCF785F867
:1047D0001348FEF766FC4FF4006001904010029011
:1047E000801003900520049000200590069007900B
:1047F000089009900A9003200B9000200C904FF431
:1048000080400D9001A90648FEF76CFB08B1FCF74B
:1048100064F80348FEF7A6FF1FB000BD002C01405E
:10482000FC00002010B51848184908604FF4E1302A
:104830004860002115488160C16001610C2141611F
:1048400000218161C1610162416200200F498862DB
:104850000846FFF707FB08B1FCF73FF800210B48BB
:10486000FFF7C7F908B1FCF738F800210748FFF750
:1048700091F908B1FCF731F80448FFF763F908B182
:10488000FCF72BF810BD0000004400404801002058
:1048900000BFFEE700BFFEE710B51D48FEF760FD54
:1048A00000211B48FFF7A6F804211948FFF7A2F8DA
:1048B00008211748FFF79EF80C211548FFF79AF8D2
:1048C00000211348FEF754FC04211148FEF750FC68
:1048D00008210F48FEF74CFC0E48FCF73FFB0E4842
:1048E000FCF73CFB0B480068406840F02000094999
:1048F0000968486008480068406840F020000649A0
:10490000096848604FF4316001490968086410BDC6
:10491000FC000020240000209000002070470000D0
:1049200070B5164DED6805F00304144DED68C5F340
:1049300003156B1C022C0CD0032C09D1104DB5FBB8
:10494000F3F50E4EF668C6F3062605FB06F10AE0FF
:1049500000BF0C4DB5FBF3F5084EF668C6F306260E
:1049600005FB06F100BF00BF044DED68C5F34165CE
:104970006D1C6A00B1FBF2F070BD00000010024037
:1049800000366E010024F4007047000070B52DED74
:10499000028B05460C46B7EE000A84ED090A95ED38
:1049A000000A84ED000A95ED010A84ED010A95EDF7
:1049B000010A84ED030A95ED000ADFEDFE0A20EE00
:1049C000200AD5ED010AB6EE001A01EE600A84ED68
:1049D000040A95ED000ADFEDF80A20EE200AD5ED75
:1049E000010AB6EE001A01EE600A84ED050A94EDA4
:1049F000030AB5EEC00AF1EE10FA01DD012000E075
:104A0000002094ED040AB5EEC00AF1EE10FA01DDC3
:104A1000012100E0002100EB410094ED050AB5EE14
:104A2000C00AF1EE10FA01DD012100E0002100EBE7
:104A30008100A060A06807287DD2DFE800F07C52EA
:104A4000F7A6F504F40094ED050A84ED0E0A94ED42
:104A5000030A84ED100A94ED0E0AD4ED100A30EE2C
:104A6000208A94ED090AB4EEC80AF1EE10FA0FD2CA
:104A700094ED090AC0EE088A94ED0E0A20EE280A89
:104A800084ED0E0A94ED100A20EE280A84ED100A37
:104A900094ED090AD4ED0E0A30EE600AD4ED100A46
:104AA00030EE600AF0EE000A80EE201A84ED111A52
:104AB00094ED0E0AD4ED100A30EE200AD4ED110A5E
:104AC00030EE200A84ED060A94ED100AD4ED110AA6
:104AD00030EE200A84ED070A94ED110A84ED080AED
:104AE0009CE194ED050AB1EE400A84ED0C0A94EDC8
:104AF000040AB1EE400A84ED100A94ED0C0AD4EDDC
:104B0000100A30EE208A94ED090AB4EEC80AF1EEDC
:104B100010FA0FD294ED090AC0EE088A94ED0C0A3F
:104B200020EE280A84ED0C0A94ED100A20EE280AE3
:104B300084ED100A00E070E194ED090AD4ED0C0A4E
:104B400030EE600AD4ED100A30EE600AF0EE000A92
:104B500080EE201A84ED111A94ED100AD4ED110A9A
:104B600030EE200A84ED060A94ED0C0AD4ED100A0A
:104B700030EE200AD4ED110A30EE200A84ED070A47
:104B800094ED110A84ED080A48E194ED030A84EDDE
:104B90000C0A94ED040A84ED0D0A94ED0C0AD4ED90
:104BA0000D0A30EE208A94ED090AB4EEC80AF1EE3F
:104BB00010FA0FD294ED090AC0EE088A94ED0C0A9F
:104BC00020EE280A84ED0C0A94ED0D0A20EE280A46
:104BD00084ED0D0A94ED090AD4ED0C0A30EE600A5A
:104BE000D4ED0D0A30EE600AF0EE000A80EE201AD5
:104BF00084ED111A94ED110A84ED060A94ED0C0A65
:104C0000D4ED0D0A30EE200AD4ED110A30EE200A60
:104C100084ED070A94ED0D0AD4ED110A30EE200A56
:104C200084ED080AFAE053E0A0E0FFE794ED030A00
:104C3000B1EE400A84ED0B0A94ED050AB1EE400A8C
:104C400084ED0D0A94ED0B0AD4ED0D0A30EE208AA6
:104C500094ED090AB4EEC80AF1EE10FA0FD294ED01
:104C6000090AC0EE088A94ED0B0A20EE280A84EDAA
:104C70000B0A94ED0D0A20EE280A84ED0D0A94ED3E
:104C8000090AD4ED0B0A30EE600AD4ED0D0A30EEBD
:104C9000600AF0EE000A80EE201A84ED111A94EDFD
:104CA000110A84ED060A94ED0D0AD4ED110A30EED6
:104CB000200A84ED070A94ED0B0AD4ED0D0A30EEBC
:104CC000200AD4ED110A30EE200A84ED080AA5E08E
:104CD00094ED040A84ED0B0A94ED050A84ED0F0AA5
:104CE00094ED0B0AD4ED0F0A30EE208A94ED090AF8
:104CF000B4EEC80AF1EE10FA0FD294ED090AC0EE34
:104D0000088A94ED0B0A20EE280A84ED0B0A94ED34
:104D10000F0A20EE280A84ED0F0A94ED090AD4ED5B
:104D20000B0A30EE600AD4ED0F0A30EE600AF0EEA6
:104D3000000A80EE201A84ED111A94ED0F0AD4EDCA
:104D4000110A30EE200A84ED060A94ED110A84ED72
:104D5000070A94ED0B0AD4ED0F0A30EE200AD4EDC9
:104D6000110A30EE200A84ED080A57E094ED040A97
:104D7000B1EE400A84ED0E0A94ED030AB1EE400A4A
:104D800084ED0F0A94ED0E0AD4ED0F0A30EE208A5E
:104D900094ED090AB4EEC80AF1EE10FA14D294EDBB
:104DA000090AC0EE088A94ED0E0A20EE280A84ED66
:104DB0000E0A03E0D7B35DBFD7B35D3F94ED0F0A92
:104DC00020EE280A84ED0F0A94ED090AD4ED0E0AAC
:104DD00030EE600AD4ED0F0A30EE600AF0EE000A01
:104DE00080EE201A84ED111A94ED0E0AD4ED0F0A0C
:104DF00030EE200AD4ED110A30EE200A84ED060AC6
:104E000094ED110A84ED070A94ED0F0AD4ED110A0E
:104E100030EE200A84ED080A00E000BF00BF94EDE8
:104E2000080ADFED120A20EE200ABCEEC00A10EEDE
:104E3000103A9AB294ED070ADFED0C0A20EE200A30
:104E4000BCEEC00A10EE103A99B294ED060ADFEDFE
:104E5000070A20EE200ABCEEC00A10EE103A98B203
:104E600001F0B2FDBDEC028B70BD000000103145B9
:104E700010B5FDF7BDF810BD00B5A5B0382117A8D5
:104E8000FBF700FA142112A8FBF7FCF9442101A852
:104E9000FBF7F8F90020FDF77DF9012017900004D9
:104EA000189002201E9003211F91062117A841622D
:104EB000552181620221C16201634163FDF740FD1A
:104EC00008B1FBF70AFD0F20129003201390002079
:104ED000149015901690042112A8FDF7A9FB08B1B3
:104EE000FBF7FBFC48F202000190002003904FF01A
:104EF0000050109001A8FDF7E3F908B1FBF7EDFCB5
:104F000025B000BD0548006840F470000349086002
:104F10004FF00060014980390860704788ED00E07B
:104F200010B50248FEF7FDFA10BD0000FC0000209D
:104F300010B50248FEF7F5FA10BD0000FC00002095
:104F400010B50268264B98420BD0B0F1804F08D0C4
:104F5000244B984205D0244B984202D0234B9842D0
:104F600003D122F070024B681A431D4B984214D0B3
:104F7000B0F1804F11D01B4B98420ED01A4B984283
:104F80000BD01A4B984208D0194B984205D0194BB8
:104F9000984202D0184B984203D122F44072CB6859
:104FA0001A4322F080034C6943EA040202608B68D2
:104FB000C3620B6883620A4B98420BD00B4B98423A
:104FC00008D00B4B984205D00A4B984202D00A4BAE
:104FD000984201D10B6903630123436110BD0000B6
:104FE000002C014000040040000800400034014053
:104FF00000400140004401400048014030B501F04C
:105000001F05012404FA05F3046A9C430462046A40
:1050100001F01F0502FA05F52C43046230BD30B5DE
:1050200001F01F05042404FA05F3046A9C4304629A
:10503000046A01F01F0502FA05F52C43046230BD35
:1050400030B50C46816821F47F4142EA03252543AF
:105050002943816030BD00000A468168034B194036
:1050600042F0070319438160704700008FFFCFFFB4
:1050700030B5056A25F001050562026A4368846956
:10508000204D2C4024F003040D682C4322F0020232
:105090008D682A431C4DA84200D10FE01B4DA84249
:1050A00000D10BE01A4DA84200D107E0194DA842EB
:1050B00000D103E0184DA84206D100BF22F008023B
:1050C000CD682A4322F004020F4DA8420BD00F4DA9
:1050D000A84208D00E4DA84205D00E4DA84202D0DD
:1050E0000D4DA84207D123F4807323F400734D695A
:1050F0002B438D692B43436084614D684563026295
:1051000030BD00008FFFFEFF002C01400034014045
:1051100000400140004401400048014030B5056AAC
:1051200025F010050562026A43688469224D2C400F
:1051300024F440740D6844EA052422F020028D68AE
:1051400042EA05121D4DA84200D10FE01C4DA842B5
:1051500000D10BE01B4DA84200D100BF1A4DA84260
:1051600000D100BF194DA84207D106E022F080020D
:10517000CD6842EA051222F04002104DA8420BD041
:105180000F4DA84208D00F4DA84205D00E4DA842A1
:1051900002D00E4DA84209D123F4806323F40063AA
:1051A0004D6943EA85038D6943EA85034360846161
:1051B0004D688563026230BDFF8FFFFE002C014009
:1051C00000340140004001400044014000480140DB
:1051D00030B5056A25F480750562026A4368C469C2
:1051E000224D2C4024F003040D682C4322F400725D
:1051F0008D6842EA05221E4DA84200D10FE01D4DE8
:10520000A84200D10BE01C4DA84200D100BF1B4DAD
:10521000A84200D100BF1A4DA84207D106E022F4EF
:105220000062CD6842EA052222F48062104DA84255
:105230000BD0104DA84208D00F4DA84205D00F4DFD
:10524000A84202D00E4DA84209D123F4805323F482
:1052500000534D6943EA05138D6943EA0513436022
:10526000C4614D68C563026230BD00008FFFFEFF60
:10527000002C014000340140004001400044014046
:105280000048014030B5056A25F480550562026A80
:105290004368C469224D2C4024F440740D6844EAEC
:1052A000052422F400528D6842EA05321D4DA842C1
:1052B00000D10FE01C4DA84200D10BE01B4DA842CD
:1052C00000D100BF1A4DA84200D100BF194DA8421D
:1052D00007D106E022F40042CD6842EA053222F40A
:1052E0008042104DA8420BD00F4DA84208D00F4D60
:1052F000A84205D00E4DA84202D00E4DA84209D1B9
:1053000023F4804323F400434D6943EA85138D69F8
:1053100043EA85134360C4614D680564026230BD91
:10532000FF8FFFFE002C014000340140004001408F
:10533000004401400048014030B5056A25F480353D
:105340000562026A4368046D114D2C400D682C43C0
:1053500022F400320D8942EA05420E4DA8420BD0DC
:105360000D4DA84208D00D4DA84205D00C4DA842C5
:1053700002D00C4DA84204D123F480334D6943EA96
:105380000523436004654D688564026230BD0000FA
:105390008FFFFEFF002C014000340140004001401F
:1053A000004401400048014030B5056A25F48015ED
:1053B0000562026A4368046D114D2C400D6844EA91
:1053C000052422F400120D8942EA05520D4DA8422F
:1053D0000BD00D4DA84208D00C4DA84205D00C4D65
:1053E000A84202D00B4DA84204D123F480234D697A
:1053F00043EA8523436004654D68C564026230BD9D
:10540000FF8FFFFE002C01400034014000400140AE
:10541000004401400048014030B50B461446026A82
:10542000056A25F001050562816921F0F00141EA74
:10543000041122F00A021A438161026230BD30B5C4
:105440000B461446056A25F0100505628169026A5B
:1054500021F4704141EA043122F0A00242EA031231
:105460008161026230BD00007FB517A660CECDE934
:10547000025617A660CECDE90056456E2DB901251E
:10548000A0F86A50A0F868501CE0082308240568BA
:10549000AD68C5F342610568AD686A0F02ADAD5CE9
:1054A00015FB04F51DF8026095FBF6F5A0F86A50AF
:1054B00002AD6D5C15FB03F51DF8016095FBF6F57B
:1054C000A0F868507FBD0000010101030701000042
:1054D000080402040801010190F8281001F00101FC
:1054E00039B10168496821F40031C26A1143026888
:1054F000516090F8281001F00201022907D10168DB
:10550000496821F48031026B11430268516090F8C0
:10551000281001F00401042907D10168496821F429
:105520008021426B11430268516090F8281001F00D
:105530000801082907D10168496821F40041826BFC
:1055400011430268516090F8281001F010011029F1
:1055500007D10168896821F48051C26B1143026848
:10556000916090F8281001F02001202907D10168EE
:10557000896821F40051026C11430268916090F82F
:10558000281001F04001402913D10168496821F435
:105590008011426C114302685160416CB1F5801F6B
:1055A00007D10168496821F4C001826C1143026887
:1055B000516090F8281001F08001802907D101681E
:1055C000496821F40021C26C1143026851607047A0
:1055D00038B504460020C4F88800FCF703FD0546F2
:1055E0002068006800F0080008280CD16FF07E40A9
:1055F0002B4600224FF400110090204600F0E3FB00
:1056000008B1032038BD2068006800F004000428B9
:105610000CD16FF07E402B4600224FF480010090A9
:10562000204600F0D0FB08B10320EBE72020C4F8AF
:105630008000C4F8840000BF002084F87C0000BF14
:1056400000BFDFE770B50546AC6A0020A4F85E0035
:10565000A4F856002046FEF7FDFA70BD01680968FF
:1056600021F490710268116001688968044A114050
:10567000026891602021C0F884100021C166704743
:10568000FEFFFFEF10B504462068006820F04000E0
:10569000216808602020C4F8800000202067204690
:1056A000FEF7D8FD10BD2DE9F0410446B4F8607056
:1056B000D4F88400222826D12068406A86B2A56DDD
:1056C00006EA07002880A06D801CA065B4F85E0083
:1056D000401EA4F85E00B4F85E00D0B920680068EF
:1056E00020F49070216808602068806820F0010034
:1056F000216888602020C4F884000020E0662046ED
:10570000FEF7CCFC05E02068806940F008002168C5
:105710008861BDE8F08100002DE9F0470446B4F847
:105720006090D4F88400222843D1B4F8685028E06F
:105730002068406A1FFA80F8A76D08EA09003880DF
:10574000A06D801CA065B4F85E00401EA4F85E0049
:10575000B4F85E0098B92068006820F48070216871
:105760000860206880681749084021688860202008
:10577000C4F884000020E0662046FEF78FFC681E17
:1057800085B2002DD4D1B4F85E60C6B1B4F868001B
:10579000B04214DD2068806820F080502168886065
:1057A0000948E0662068006840F020002168086031
:1057B00005E02068806940F0080021688861BDE844
:1057C000F0870000FEFFFFEFA756000870B5044603
:1057D000B4F86060D4F88400222826D12068406A9A
:1057E00085B2F0B22840A16D0870A06D401CA06584
:1057F000B4F85E00401EA4F85E00B4F85E00D0B9B4
:105800002068006820F49070216808602068806833
:1058100020F00100216888602020C4F88400002066
:10582000E0662046FEF73AFC05E02068806940F01B
:1058300008002168886170BD2DE9F0410446B4F884
:105840006080D4F88400222843D1B4F8685028E05E
:105850002068406A87B208F0FF003840A16D0870E8
:10586000A06D401CA065B4F85E00401EA4F85E0068
:10587000B4F85E0098B92068006820F48070216850
:1058800008602068806817490840216888602020E7
:10589000C4F884000020E0662046FEF7FFFB681E87
:1058A00085B2002DD4D1B4F85E60C6B1B4F86800FA
:1058B000B04214DD2068806820F080502168886044
:1058C0000948E0662068006840F020002168086010
:1058D00005E02068806940F0080021688861BDE823
:1058E000F0810000FEFFFFEFCD5700082DE9FE4FCD
:1058F000044600200290D8492068884200D100E088
:1059000000BF2169A068084361690843E16940EA72
:105910000108606E40EA080820680068CF49084026
:1059200040EA0800216808602068406820F4405080
:10593000E168084321684860D4F81880C6492068A7
:10594000884202D0206A40EA080820688068C4497A
:10595000084040EA0800216888602068C06A20F09A
:105960000F00616A08432168C86200BFBD49206812
:10597000884216D1BC48006800F0030030B101280D
:1059800008D0022804D0032808D105E0012507E04B
:10599000022505E0042503E0082501E0102500BFED
:1059A0006FE0B2492068884216D1AF48006800F025
:1059B0000C0030B1042808D0082804D00C2808D1E5
:1059C00005E0002507E0022505E0042503E00825A1
:1059D00001E0102500BF54E0A5492068884216D197
:1059E000A148006800F0300030B1102808D020280D
:1059F00004D0302808D105E0002507E0022505E0A5
:105A0000042503E0082501E0102500BF39E099498D
:105A10002068884216D19448006800F0C00030B178
:105A2000402808D0802804D0C02808D105E00025EF
:105A300007E0022505E0042503E0082501E0102524
:105A400000BF1EE084492068884219D1864800685A
:105A500000F4406048B1B0F5806F0AD0B0F5006F37
:105A600005D0B0F5406F08D105E0002507E002251C
:105A700005E0042503E0082501E0102500BF00E053
:105A8000102500BF7449206888425ED135B1022DCF
:105A900008D0042D08D0082D0DD109E0FCF7E0FE58
:105AA00006460CE0744E0AE0FCF7FEFE064606E0F1
:105AB0004FF4004603E000260120029000BF00BF23
:105AC000002E10D06D49606A31F81000B6FBF0F975
:105AD000606800EB4000484503D860680003484513
